:100000000C94C6030C940D040C940D040C94C104C0
:100010000C940D040C940D040C940D040C940D041C
:100020000C940D040C940D040C94892B0C945B2CF3
:100030000C94891F0C940D040C940D040C940D0465
:100040000C940D040C940D040C940D040C940D04EC
:100050000C940D040C94D61F0C940D040C940D04F8
:100060000C940D040C940D040C940D040C940D04CC
:100070000C940D040C940D040C940D040C940D04BC
:100080000C940D040C940D040C940D040C940D04AC
:100090000C940D040C940D040C940D040C940D049C
:1000A0000C940D040C940D040C940D04041404140D
:1000B000161416140D14161416141614041404141D
:1000C0001214161416141214581458148C148C1478
:1000D0000616DC1406160616E714821595159515F6
:1000E000F61506160616FF15C82CEF2CE72DEF2C7B
:1000F000E72D3B2D5E2DE72DB52DC42D17001500E6
:1001000008001A001400000000000A00090007009F
:1001100016000400000000000500190006001B0086
:100120001D00000000000257E00002582C0000579C
:1001300000000000E20000000000000000000000DD
:1001400000001C0018000C0012001300000000004A
:100150000B000D000E000F00330000000000110026
:1001600010003600370038000000000005572A0054
:1001700028004C0001570000000004570000000058
:1001800000000000000000000000F9000000F00086
:100190000000000000000000FA00F300F100F2008F
:1001A0000000000000000000F500F600F400000070
:1001B00000000100005C295D285D000000000000D7
:1001C000010000000000000000000000000000002E
:1001D000000000000000000000000000500051007E
:1001E00052004F000000000000000000000000006E
:1001F00000000000000000000000DE5C00000000C5
:1002000000000000000000000000000000000000EE
:10021000000000001702150208021A021402000072
:1002200000000A0209020702160204020000000090
:100230000502190206021B021D020000000029022D
:10024000E00201002C024A02000000002B02000024
:10025000000000000000000000001C0218020C0258
:1002600012021302000000000B020D020E020F0228
:100270003302000000001102100236023702380279
:1002800000000000E2022A0228024C024D02000097
:100290000000490200000000000000000000000013
:1002A0000A00090007001A001400000000000C00FA
:1002B00018000800120004000000000005001900EA
:1002C00006001B001D00000000000257E00002585D
:1002D0002C00005700000000035700000000000041
:1002E0000000000000001C0018000C0012001300A9
:1002F000000000000B000D000E000F003300000096
:100300000000110010003600370038000000000027
:1003100005572A0028004C00015700000000045730
:100320000000000000000000000000000A020902B6
:1003300007021A021402000000000C021802080250
:1003400012020402000000000502190206021B024C
:100350001D02000000002902E002E1022C028B02D3
:10036000000000002B020000000000000000000060
:1003700000001C0216021702150213020000000002
:100380000B020D020E020F023302000000001102E8
:10039000100236023702380200000000E2022A0290
:1003A00028024C028A0200000000490200000000FE
:1003B00000000000000000003E003D003C003B004B
:1003C0003A000000000043004200410040003F00AE
:1003D000000000006A006900680045004400000059
:1003E00000000100E000E1002C000000000000001F
:1003F0002E5D0000000000000000000000001E0054
:100400001F00200021002200000000002300240023
:10041000250026002700000000002D0233022D00D9
:10042000340238000000000089021E0238022E0249
:100430002202000000002302000000000000000073
:1004400000000000480047004600010001000000D5
:1004500000004B004A0049000100010000000000BC
:100460004E004D004C0001000100000000002E5D18
:10047000E000E1002C00000000000000010000008E
:1004800000000000000000000000250226023002EB
:1004900032022F0000000000300032003602370226
:1004A0003400000000002F0224021F028702870090
:1004B0000000000021020000000000000000000019
:1004C000000020020000000000000000000000000A
:1004D000000000000000000000000000000000001C
:1004E000000000000000000000000000000000000C
:1004F00000000000000000000000000000000000FC
:1005000000000000000000000000000000000000EB
:1005100000000000000000000000000000000000DB
:1005200000000000000000000000000000000000CB
:1005300000000000000000000000000000000000BB
:1005400000000000000000000000000000000100AA
:10055000000000000000000000000000000000009B
:10056000000000000000000000000000000000008B
:10057000000000000000000000000000000000007B
:10058000000000000000000000000000000000006B
:10059000000000000000000000000000000000005B
:1005A000000000000000000000000000000000004B
:1005B000000000000000000000000000000000003B
:1005C000000000000000000000000000010000002A
:1005D000000000000000000000000000000000001B
:1005E00000000000000000000403300000001003C1
:1005F0004D0061006E0074006100340032000000A4
:100600000A0378006300640030000000040309045A
:1006100009029F00040100A0320904000001030147
:100620000100092111010001224000070581030892
:10063000000A090401000103000000092111010062
:1006400001228A000705820320000A080B0202012A
:10065000010000090402000001010000092401005A
:10066000010900010309040300020103000007243B
:1006700001000141000624020101000624020202D9
:1006800000092403010301020100092403020401FB
:1006900001010009050402400005000005250101D3
:1006A0000109058302400005000005250101031230
:1006B0000110010000000867320000010001020380
:1006C0000105010902A10185020901A1000509191D
:1006D0000129051500250195057501810295017512
:1006E0000381010501093009311581257F950275C6
:1006F00008810609381581257F9501750881060551
:100700000C0A38021581257F950175088106C0C045
:1007100005010906A1018505050719E029E715006E
:1007200025019508750181020507190029EF1500BB
:10073000250195F075018102050819012905950526
:1007400075019102950175039101C005010906A18A
:1007500001050719E029E7150025019508750181B4
:10076000029501750881010507190029FF1500266A
:10077000FF009506750881000508190129059505F2
:1007800075019102950175039101C00011241FBEEE
:10079000CFEFDAE0DEBFCDBF04B603FE27C0809105
:1007A0006B0490916C04A0916D04B0916E0487303D
:1007B000904BA740B04BD1F410926B0410926C0494
:1007C00010926D0410926E0414BE84B7877F84BFAC
:1007D0000FB6F894A89580916000886180936000BE
:1007E000109260000FBEE0E0F8E3099512E0A0E08F
:1007F000B1E0E4E3FDE502C005900D92A431B1073C
:10080000D9F724E0A4E1B2E001C01D92AB36B207F3
:10081000E1F70E9476280C94982E0C9400008EE14B
:100820004A9B02C08150E1F74A9BFECF08955A9837
:1008300080E28A95F1F75A9A0895FC012AE02A95F8
:10084000F1F790E020E080E031E0261779F040E118
:100850004A95F1F7880F4A9B02C08160932700C038
:10086000000040E14A95F1F72F5FEFCF20E12A9594
:10087000F1F729B100C0000030E13A95F1F722FB11
:10088000222720F992272081920F90830895EF92DA
:10089000FF920F931F93CF93DF931F92CDB7DEB7D5
:1008A00019828C017C01E60EF11C0E151F0559F012
:1008B0000E940F0468E0CE0101960E941D04F80119
:1008C00081938F01F2CF81E09981911180E00F90A7
:1008D000DF91CF911F910F91FF90EF90089590932A
:1008E00016028093150260931402529A5A9A089540
:1008F00090931602809315026093140252985A9AAC
:10090000EA9AE9E6F0E080818F7C80830895615067
:1009100091E001C0990F6A95EAF720E031E0992350
:1009200061F0492F482319F05A9A232701C05A9899
:1009300040E24A95F1F79695F2CF222311F05A9AA8
:1009400001C05A9880E28A95F1F75A980895FF926B
:100950000F931F93CF93DF93EC018C01060F111DB2
:10096000C017D10741F0F9900E94170468E08F2D5D
:100970000E948704F5CFDF91CF911F910F91FF90D7
:1009800008951F920F920FB60F9211240F931F9389
:100990002F933F934F935F936F937F938F939F9387
:1009A000AF93BF93EF93FF93CF93DF931F92CDB796
:1009B000DEB719820E940F0467E0CE0101960E9403
:1009C0001D04382F369536953695932F969595704C
:1009D000232F2570920F292F237096959695877057
:1009E000920F891348C08981811145C080911402FA
:1009F000831708F440C080E18A95F1F75A9A529A19
:100A0000A2E0AA95F1F700C000911502109116021C
:100A1000B8E03B9F000D111D11245A98F801658123
:100A2000662321F0868197810E94A7040E94170403
:100A3000F0E1FA95F1F75A9852985A9A80E18A951E
:100A4000F1F7D80112966C911297662369F013960C
:100A50008D919C9114970E944704D801ED91FC91CF
:100A6000811105C082E004C0D801ED91FC9188E0BD
:100A700080830E940F040F90DF91CF91FF91EF913F
:100A8000BF91AF919F918F917F916F915F914F91A6
:100A90003F912F911F910F910F900FBE0F901F90BC
:100AA00018950F931F93CF93DF932091140230E09A
:100AB000281739070CF471C09C0193E0220F331FF3
:100AC0009A95E1F7C0911502D0911602C20FD31F7B
:100AD000F894529A5A9845E04A95F1F70000982FF9
:100AE000969595708570890F982F93708695869549
:100AF000890F8901082B0E94170484E08A95F1F779
:100B000000C067E0802F0E94870440E14A95F1F71A
:100B100052985A9A4A9902C000C0FCCF87E090E0F0
:100B20004A9B0EC0019751F4529A5A9AE881F98172
:100B300081E08083789481E090E031C000C0F0CF04
:100B40006D81662381F08E819F810E94470481110F
:100B50000AC0529A5A9AE881F98182E08083789497
:100B600082E090E01CC00E940F0480E28A95F1F7B9
:100B70005A98529A40E14A95F1F76A81662321F02A
:100B80008B819C810E94A7040E941704E881F9814F
:100B90001082789480E090E002C084E090E0DF91E1
:100BA000CF911F910F910895CF93DF93ABEFB1E0F9
:100BB00040E052E061E070E08D91E82FE295EF7047
:100BC000F0E021A18F70EB0102C0CC0FDD1F8A95F0
:100BD000E2F7CE019C2F9095922391A392A1892BAD
:100BE00082A34A175B0741F7DF91CF9108950895DB
:100BF0000C94F7050E9491070E94D405A4EFB1E080
:100C000041E050E08D91E82FE295EF70F0E021A1F6
:100C10008F70BA0102C0660F771F8A95E2F7CB0189
:100C2000962F9095922391A392A1892B82A371E094
:100C3000AB3FB70739F7209A559A289A5D9AE1E2B7
:100C4000F2E0A7E1B2E011921D9282E0EB32F807E8
:100C5000D1F70C9428099F92AF92BF92CF92DF9266
:100C6000EF92FF920F931F93CF93DF938091010137
:100C7000811103C0C5E0D0E002C0C0E0D0E0AE0109
:100C8000495E5D4F7A018BEFC82E81E0D82E8A0134
:100C9000AA24A394B12C25E0922EF0E0CF16F2E026
:100CA000DF0609F44AC0F60181916F01E82FE29551
:100CB000EF70F0E021A18F70A50102C0440F551F15
:100CC0008A95E2F7CA01922F982B91A392A1809561
:100CD000892382A350EA5A95F1F7E4EFF1E020E08E
:100CE00040E050E03191A32FA295AF70B0E0909614
:100CF0008C9190E03F7002C0959587953A95E2F708
:100D000080FD07C0C501042E01C0880F0A94EAF7D0
:100D100002C080E090E0282B4F5F5F4F47305105C5
:100D200009F7F8018081821719F020839092000161
:100D30000E94D4050F5F1F4FB0CF80910001882320
:100D4000B1F0815080930001811103C0CF5DDD4F70
:100D500007C08FE99FE00197F1F700C0000007C0CE
:100D6000F70191917F0199938F5F8530C9F781E0F9
:100D7000DF91CF911F910F91FF90EF90DF90CF9077
:100D8000BF90AF909F900895CF93DF932091010182
:100D9000211103C0C0E0D0E002C0C5E0D0E00E9455
:100DA000AC07009721F0029781F428980EC0289A8A
:100DB000DE01AF5DBD4F85E0E7E3F2E001900D920B
:100DC0008A95E1F780E090E002C081E090E0DF9159
:100DD000CF9108950E942B0680910101811103C0DB
:100DE000E5E0F0E002C0E0E0F0E0EF5DFD4F20E084
:100DF00030E080E0D901A95CBD4F4C91919149133D
:100E000081E09C932F5F3F4F2530310599F79091FA
:100E10002F02890F80932F020895CF93DF930E94B2
:100E20007407882309F43FC00E942B0680910101BA
:100E3000811103C0C5E0D0E002C0C0E0D0E0CF5DCA
:100E4000DD4F45E050E0BE0182E392E00E94492E72
:100E500025E0FE01A2E3B2E001900D922A95E1F7B0
:100E60000E94C406892BD9F05D9880912B028F5F78
:100E700080932B02863058F180910101811103C0CB
:100E8000E0E0F0E002C0E5E0F0E0EF5DFD4F80E083
:100E900090E01192019685309105D9F718C05D9ABE
:100EA00010922B0214C00E94EA0680910101811168
:100EB00003C0A0E0B0E002C0A5E0B0E0AF5DBD4F70
:100EC00085E0E2E3F2E001900D928A95E1F70E945D
:100ED000300981E0DF91CF910895E82FF0E0EF5DD8
:100EE000FD4F80810895089580912C02811112C0D8
:100EF0008091D80080618093D8008AE18A95F1F7CB
:100F000000C08091D90080FD02C082E001C081E074
:100F100080932C0281E090912C02913009F080E0C6
:100F200008950E947407809301010E94740788232A
:100F300019F00E94A00702C00E94A60778940895A5
:100F400063E070E082E091E00C946F0463E070E095
:100F500082E091E00C9478040F931F93CF93DF937A
:100F60008C0190911B0180911A01981761F082E029
:100F700090E00E945105EC01892B39F480911A010F
:100F800080931B0102C0C0E0D0E0012B49F48091A6
:100F90002D0290912E02892B19F480E090E002C07E
:100FA00081E090E00E945105892B49F480912F0245
:100FB00080931A0110922E0210922D0206C081E039
:100FC00090E090932E0280932D02CE01DF91CF917D
:100FD0001F910F9108950E944E1280933C020C9431
:100FE00080080C944112CF93DF93EC010E94DB1D2B
:100FF000BE0180E090E0DF91CF910C941E1BCF9357
:10100000DF93D62FC42F0E947E1B882351F08D2F93
:101010000E947E1B882329F08C2FDF91CF910C94A6
:101020009E1B8C2FDF91CF910C94BF1B88EC90E01E
:101030000895CF93FB018E322DE5920709F451C03C
:1010400040F488322DE5920761F089329D4581F0A8
:1010500053C081332DE59207A1F082339D4519F1EC
:101060004BC0C281CC2309F448C081E090E006C0A7
:10107000C281CC2309F441C088E090E00E94F307CC
:1010800036C0C281CC2349F080913D02811103C05A
:1010900081E080933D0285E011C010923D0285E021
:1010A0000E94BF1B18C0C281CC2381F080913D02F9
:1010B000811103C081E080933D0286E00E949E1B67
:1010C00041E066E085E00E94FF0711C086E00E94D3
:1010D000BF1B10923D0241E066E085E00E94FF07E1
:1010E0000CC0C28181E0CC2321F00E949E1BC0E095
:1010F00004C00E94BF1B01C0C1E08C2FCF91089596
:1011000008959C013A9521153F4138F5DC01AA2745
:10111000B270AC01442754709C012227387094FFB0
:101120000FC090FF02C080E101C080E0AB2B09F04E
:101130008062452B09F08064232B69F080680BC026
:10114000892F8170AB2B09F08260452B09F08460F8
:10115000232B09F08860FB0109940895CF93DF9356
:10116000EC01805E9109089710F0209719F464EC67
:1011700073E102C062ED73E1CE010E9481088C2F01
:10118000DF91CF910C944213CF93DF93EC010E9437
:101190007D13CE01805E9109089710F0209719F415
:1011A0006BEC73E102C069ED73E1CE01DF91CF9189
:1011B0000C94810881E008950C94190808950C940A
:1011C000DE081F93CF93DF9300D000D01F92CDB7DE
:1011D000DEB749835A836B833091A10289819A815A
:1011E000311114C0662359F0222349F00E94931C48
:1011F000182F682F89819A810E943C1C03C00E948D
:10120000671C182F69817A81812F04C00E94931C6A
:1012100069817A810F900F900F900F900F90DF915E
:10122000CF911F910C94A509FC01262F408151817B
:101230006281738184810C94E108CF93DF93EC0188
:1012400060E00E941409BE01DF91CF910C94DF0889
:101250000E94C81D811102C00E946D1E0C94EB07F4
:101260000E947D110C94F80508950C94340981E0D6
:1012700008950C943709CF93C82F0E9435098C2FFD
:101280000E943909CF91089508950E94F2130E9497
:1012900044092FEF84E39CE0215080409040E1F727
:1012A00000C000000C94FC1F0F931F93CF93DF939B
:1012B000EC0161E00E9414098C01BE010E94DA1069
:1012C000BE01C8010E94DC088823A9F1BE01C80143
:1012D0000E94C50B882379F1BE01C8010E9421112B
:1012E000882349F1BE01C8010E94990E882319F193
:1012F000BE01C8010E94EB0E8823E9F0BE01C801BF
:101300000E9416108823B9F08A81882369F001159C
:101310008CE5180731F00E3D1C4531F40E946D1E1E
:101320000AC00E94450907C0CE01DF91CF911F91ED
:101330000F910C94DA0880E0DF91CF911F910F910B
:10134000089580E090E00895089526E4829FC0010A
:101350001124FC0127E0729FE00DF11D1124E60F1E
:10136000F11DEE0FFF1FE450FF4F859194910895FA
:10137000880F991FFC01E851FA4F859194910895C7
:10138000CF93DF930E94A5090E94C20AEC01811548
:1013900021E59207B8F5811540E5940708F08BC068
:1013A0008F3F910509F0E0F4803F910508F06EC091
:1013B000803E910580F4803C910508F069C0813041
:1013C000910509F4DBC008F4D7C00497813A910570
:1013D00008F4D4C0D1C0883E910508F4CFC0CCC079
:1013E000C11580E3D80740F4C11520E2D20708F404
:1013F000C5C0CE019F704EC0C11540E4D40708F0AF
:1014000057C04CC0C11585E5D807A0F4C11524E527
:10141000D20708F097C0C11543E5D40708F07CC097
:10142000C11582E5D80708F061C0DC2FCC27C16F59
:10143000D06AA4C0C11529E5D207A0F4C11548E5BA
:10144000D40708F084C0C11586E5D80708F094C019
:101450008C2F0E94560B8F71C82FD0E0DC2FCC2729
:10146000D0628CC0C1152AE5D20708F475C0CE0140
:1014700090568115904208F07FC08D2F8F710E9489
:10148000560BDD27D0628F71D82B78C0D06576C01F
:10149000805C91090E94B809EC0170C0CE019927C7
:1014A000D3FF03C0EC01D86C69C0EC01D06C66C0FE
:1014B000DF70D06A63C074E0969587957A95E1F7FE
:1014C00083709C2F937021E030E002C0220F331F05
:1014D0009A95E2F73C68382BCF70C695C69580E2A6
:1014E000C89FE0011124C22BD32B48C0CE018370CA
:1014F000992721E030E002C0220F331F8A95E2F7DE
:101500008C2F8695869540E2849FC0011124E901C5
:10151000C82BD92BDC6832C0CE018370992721E01B
:1015200030E002C0220F331F8A95E2F78C2F869598
:10153000869540E2849FC0011124E901C82BD92B74
:10154000DA681CC0DC2FCC27C46FD06A17C0DC2F30
:10155000CC27C06FD06A12C08C2F8F700E94560BA0
:1015600094E0D695C7959A95E1F7CF70D0E0DC2F3F
:10157000CC27D069C82B02C0C0E0D0E0CE01DF91FB
:10158000CF9108958238910569F1B0F481339105C6
:1015900009F46DC048F48932910509F463C08A32B8
:1015A000910509F469C008958533910509F455C082
:1015B00089339105B9F00895833E910569F138F4B6
:1015C000803E9105B1F0823E910509F10895863E75
:1015D0009105A9F1873E9105B9F1843E910509F085
:1015E00064C023C020916F0320FD4FC021FD4DC07A
:1015F000089580916F0380FD44C08091700380FF47
:1016000044C080916F0384FD42C083EE4DC0809141
:101610006F0382FF38C0F5CF80916F0382FD33C026
:101620008091700380FD31C0ECCF8091700381FF09
:1016300032C080916F0384FD2AC087EE35C080914F
:101640006F0383FF26C0F5CF80916F0383FD21C018
:101650008091700381FD1FC0ECCF80916F0385FDE9
:101660001CC01DC080916F0385FD19C016C08091FC
:101670006F0386FD16C017C080916F0386FD13C0EF
:1016800010C089E311C082EE0FC080EE0DC080E073
:101690000BC086EE09C084EE07C089E205C085E371
:1016A00003C08AE201C081E390E0089590916F0346
:1016B00092FF0DC0282F2871283019F4877F84608D
:1016C00006C0282F2471243011F48B7F886093FF8B
:1016D0000DC0282F2871283119F4877E846106C037
:1016E000282F2471243111F48B7E8861209170039E
:1016F00020FF0DC0382F3871383019F4877F816092
:1017000006C0382F3171313011F48E7F886021FF8F
:101710000DC0282F2871283119F4877E816106C0F9
:10172000282F2171213111F48E7E886194FD877EEE
:10173000089584E08093670389E080936803809133
:101740006903807F886080936903E2E4F2E08FEFB1
:10175000819392E0EA38F907D9F71092410210928A
:10176000400210923F0210923E020895909167034A
:10177000292F2F7095959595959595959F523CE0BD
:10178000239F900D1124890F0895EF92FF920F93DC
:101790001F93CF93DF93FB018E3A2CE5920708F05D
:1017A00044C08E393CE5930708F040C180392CE5F0
:1017B0009207F0F483383CE5930708F0D1C08138F4
:1017C0002CE5920758F487373CE5930708F09FC053
:1017D0008F322CE5920708F065C0C9C181383CE51D
:1017E000930709F4A1C082389C4509F4A7C0BFC182
:1017F0008C393CE5930778F482392CE5920708F0A0
:10180000F1C080393CE5930709F4B3C081399C45A8
:1018100009F4C2C0ACC18C393CE5930709F4ECC0B3
:101820008D399C4509F4F7C0A2C1843B3CE5930780
:1018300009F43CC1D8F4803B3CE5930709F419C195
:1018400050F48E3A3CE5930709F4FBC08F3A9C456F
:1018500009F401C18CC1609168032281823B3CE59F
:10186000930709F417C108F40FC11AC1873B2CE58F
:10187000920709F434C150F4853B2CE5920709F432
:1018800015C1863B9C4509F421C171C1893B2CE5FA
:10189000920709F44DC108F438C18A3B9C4509F40C
:1018A00058C165C120916803E22EE2943FE0E32233
:1018B000322F3F702CE0F22E239FF00C1124C281B6
:1018C00001ED080F10E0CC2391F0E801CE5BDD4F75
:1018D00028812F3F39F50E94B60B182F2F2D482F46
:1018E0006E2D81E793E00E941D2318831BC00E5BC1
:1018F0001D4FF80140814F3F31F02F2D6E2D81E7B4
:1019000093E00E942D238FEFF801808331C1228163
:10191000222341F087578F7090916703907F892B26
:1019200080936703C0E024C182818823D9F320918A
:101930006703822F8F70B1F3815F0DC0828188238E
:1019400089F320916703822F8F70482F50E0493030
:10195000510544F78F5F982F9F70822F807FDFCFD4
:1019600022812223F9F289588295807F9091670322
:1019700037C082818823B1F220916703822F859539
:101980008595859585958B3F6CF2815F982F929513
:10199000907F822F8F70C3CF8281882319F220918C
:1019A0006703822F859585958595859586300CF002
:1019B000B9CF91E0980F9295907F959595959595D3
:1019C0009595392F3295307F2F70232B2093670305
:1019D00018160CF0A7CF97FFA5CF8295807F922F86
:1019E0009F709DCF2281222309F49CCF82598F7052
:1019F00090916803907F39C08281882309F492CF47
:101A000020916803822F8F7009F48CCF815F982F0B
:101A10009F70822F09C08281882309F483CF80912F
:101A2000680391E0980F9F70807F1FC0228122235E
:101A300009F478CF8E598295807F909168039F70CA
:101A400014C08281882309F46DCF80916803982F98
:101A5000907F905109C08281882309F463CF8091DF
:101A60006803982F907F905F8F70892B8093680315
:101A700059CF8281882309F455CF6091680362951C
:101A80006F7020E04BE71DC021112FE762956F704A
:101A900040E417C021112FE762956F7041E411C037
:101AA00021112FE762956F7042E40BC08281811192
:101AB00002C020E001C02FE76091680362956F705B
:101AC00043E481E793E00E940D232CCF82818111B2
:101AD00002C08FEF01C081E08093400223CF82815A
:101AE000882309F41FCF80916903282F2F7091E07C
:101AF000920F9F70807F892B80936903982F9F702E
:101B000009F010CF807F822B10C08281882309F4D6
:101B100009CF20916903822F8F7009F403CF815F71
:101B2000982F9F70822F807F892B80936903FACE34
:101B30008281882339F06091680362956F7040E07C
:101B400050EE10C06091680362956F7040E050E005
:101B500009C082818823B1F36091680362956F7038
:101B60004FEF5FE181E793E00E943D23DBCEC1E0D0
:101B70008C2FDF91CF911F910F91FF90EF900895DF
:101B800081E793E00E94582580913E0290913F02A8
:101B90000E94C71F209169032F7030E082179307BE
:101BA00078F10E94BB1F90933F0280933E02809188
:101BB0004002882329F16091680362956F7020913B
:101BC000410241E081E793E00E940D2390914002A1
:101BD0008091410297FF0FC0282F30E0692F7727AF
:101BE00061950CF47095261737072CF4109241027A
:101BF000109240020895890F87FD8FE7809341027C
:101C00000895AF92BF92CF92DF92EF92FF920F931F
:101C10001F93CF93DF937C015B01C42FD22FFC0174
:101C200082818823F9F040938C020E94BB1F90931D
:101C30008B0280938A0280E28C0F883008F06EC09D
:101C4000C77081E001C0880FCA95EAF7DF91CF9194
:101C50001F910F91FF90EF90DF90CF90BF90AF90CA
:101C60000C94C41380918C02481335C080918A0271
:101C700090918B020E94C71F6C01B701C5010E94A1
:101C80001608C816D90638F510E21D0FCD17B9F0A1
:101C900080E28C0F883040F4C77081E001C0880F6B
:101CA000CA95EAF70E94CB13183058F581E09D2FB2
:101CB000977001C0880F9A95EAF70E94C413802F8D
:101CC0000E94B113183050F5D77081E001C0880F21
:101CD000DA95EAF70AC080E28C0F8830F8F4C77012
:101CE00081E001C0880FCA95EAF7DF91CF911F917B
:101CF0000F91FF90EF90DF90CF90BF90AF900C943A
:101D0000CB13802FDF91CF911F910F91FF90EF9018
:101D1000DF90CF90BF90AF900C94B113DF91CF9133
:101D20001F910F91FF90EF90DF90CF90BF90AF90F9
:101D300008950F939C01CB01233F4CE5340731F10B
:101D400088F4283DFCE53F07D9F0293D4CE53407F0
:101D500079F1273D3C45A9F506E221EE41EE67ED1C
:101D60007CE52BC0253FFCE53F07E1F0A8F0263FCE
:101D70003C4539F507E225EE46EE66EF7CE51DC0F1
:101D800007E225EE45EE68ED7CE517C006E221EEA0
:101D900040EE63EF7CE511C007E225EE44EE64EF10
:101DA0007CE50BC006E221EE42EE65EF7CE505C066
:101DB00008E221E045EE69ED7CE50E94010E80E03D
:101DC00008C0FC018281882319F010928C0201C0A6
:101DD00081E00F910895CF93DF93EC01FB018281A5
:101DE000882309F41FC1C230FCE5DF0708F41BC1DA
:101DF000C6319CE5D90738F09E012A5F3C45293061
:101E0000310508F010C10E94E01D9093700380938B
:101E10006F03C031ECE5DE0709F4C3C008F041C030
:101E2000C8308CE5D80709F49AC0F0F4C430ECE56A
:101E3000DE0709F487C068F4C2308CE5D80709F4DE
:101E400077C0C330DC4509F0E3C080916F03826046
:101E500076C0C630ECE5DE0709F46EC008F07BC042
:101E600080916F0388606BC0CC308CE5D80709F493
:101E700085C068F4CA30ECE5DE0709F474C008F0E8
:101E800079C00E94F21380916F03806858C0CE30F1
:101E90008CE5D80709F476C008F07FC080916F0305
:101EA0008BC0CB3FECE5DE0709F44FC018F5C3311A
:101EB0008CE5D80709F47DC078F4C131ECE5DE0784
:101EC00009F473C0C231DC4509F0A2C00E94F213CC
:101ED00080916F038F7733C0C5318CE5D80709F443
:101EE00072C008F486C0CA3FDC4509F091C08091F9
:101EF00070033EC0CF3FFCE5DF0709F45FC058F434
:101F0000CD3F9CE5D90709F444C008F43FC0809157
:101F1000700382602DC0C130FDE5DF0709F475C094
:101F200008F45DC0C230DD4509F072C080E06EC0CB
:101F300080916F03816003C080916F038061809303
:101F40006F0366C080916F0311C08091700382603F
:101F5000809370035DC080916F038062F0CF8091A9
:101F60006F038064ECCF80916F0388608460E7CF5B
:101F70008160EECF80916F038E7FE1CF80916F0300
:101F80008D7FDDCF80916F03877FD9CF80917003E4
:101F900018C0809170038D7FDBCF80916F038F7E9F
:101FA000CECF80916F038F7DCACF80916F038F7BDF
:101FB000C6CF80916F03877F8B7FC1CF80917003E5
:101FC0008D7F8E7FC5CF80916F0382FB222720F902
:101FD00091E0922790FB82F990FB83F9B0CF80913A
:101FE0007003982F909591708E7F892B90FB81F9CB
:101FF000AFCF0E94F21380916F0387FB222720F955
:1020000091E0922790FB87F99ACF81E00E946F1EA2
:1020100080916F03909170030E94F11D0E94F21352
:1020200080E001C081E0DF91CF910895CF93DF93ED
:1020300086319C4541F5EB010E94141D982F8A8141
:102040002091D3013091D401882379F09A7A81E0EC
:1020500009F480E080938D02911102C069E201C011
:1020600065E3C9010E940A1F0AC080918D02811197
:1020700002C069E201C065E3C9010E94151F0E9408
:10208000651D80E001C081E0DF91CF910895CF937D
:10209000DF93EC0181E0898B8F810E94171D888579
:1020A0000E942A1D0E94651DEA81FB81CE010696D1
:1020B000309729F06C897D89DF91CF910994DF9168
:1020C000CF910895CF93DF93FC012081223041F41A
:1020D000FB01EC01828193810E94AE0881E08B8735
:1020E000DF91CF910895FC018081813021F4FB01C3
:1020F0008081918105C0823029F4FB018281938126
:102100000C94AE080895FC018081813021F4FB011C
:102110008081918105C0823029F4FB018281938105
:102120000C94C4080895EF92FF920F931F93CF93DE
:10213000DF93FC012285211136C0EC01E380F4809D
:10214000F7E5FF1A26E12E9DC0012F9D900D112469
:10215000DC01A45EBE4F1496ED91FC9115978E5D47
:102160009E4F309729F054966D917C915597099523
:1021700086E18E9D80018F9D100D1124045E1E4FFF
:10218000F80187810E941D1DF80180850E94301D85
:102190000E94651D188219861B861E821D82109260
:1021A0008F0210928E02DF91CF911F910F91FF90BD
:1021B000EF900895DF92EF92FF920F931F93CF93CA
:1021C000DF93FB0122812223A1F12091D2012F3F35
:1021D00081F18C01CCE1D1E0E12CF12CDD24D39410
:1021E0008091D201082E000C990B8E159F050CF1E1
:1021F0008E818823C9F089859A858017910739F4E3
:1022000080918E0290918F020817190769F0DF867E
:102210001C870B878989811103C0CE010E9447105A
:10222000CE0106960E949310FFEFEF1AFF0A669602
:10223000D7CFDF91CF911F910F91FF90EF90DF905B
:102240000895EF92FF920F931F93CF93DF939C011A
:1022500037552F3F310511F008F047C04091D201AA
:10226000042E000C550B4217530714F42093D2018F
:10227000FB017C01828196E1929F8001939F100D6A
:102280001124E801C45EDE4F888B92818E819923F0
:1022900011F1FA86E9868F5F8E830E94BB1F9E87AD
:1022A0008D870E944A1D8F830E94141D88870E947B
:1022B000271D9885892B8887E881F981C8018E5D63
:1022C0009E4F309719F06C897D890995F0928F02A5
:1022D000E0928E020AC0882341F08989882329F080
:1022E000C8018E5D9E4F0E94931081E0DF91CF91D7
:1022F0001F910F91FF90EF900895CF92DF92EF9290
:10230000FF920F931F93CF93DF938091D2018F3F62
:1023100009F442C0F12C86E1E82E0F2D10E08091E7
:10232000D201082E000C990B80179107ACF1E09EAA
:10233000F001E19EF00D1124E45EFE4FC288D388C7
:10234000C114D10439F460E070E0818592850E9467
:1023500016086C01E09EE001E19ED00D1124C45EE0
:10236000DE4F8E818823B1F08D859E850E94C71F28
:10237000C816D90678F48989811103C0CE010E945C
:102380004710E09EC001E19E900D11248E5D9E4F8E
:102390000E949310F394C1CFDF91CF911F910F91C1
:1023A000FF90EF90DF90CF900895909395028093E7
:1023B00094020895E0919402F0919502309721F0F3
:1023C0000190F081E02D099480E00895E09194025D
:1023D000F0919502309799F02091F301222359F062
:1023E00020916F0327FF07C0DC012C9111962C93DD
:1023F000119725E02C930280F381E02D0994089534
:10240000E0919402F0919502309739F022E0DC01DE
:102410002C930480F581E02D099408952091920277
:10242000309193022817390771F0909393028093AB
:102430009202E0919402F0919502309721F006808B
:10244000F781E02D09940895209190023091910236
:102450002817390771F09093910280939002E091D0
:102460009402F0919502309721F00084F185E02DDF
:102470000994089585B7806885BF85B7806885BF52
:10248000089508950C9441120C9442120C94411238
:102490000E943A120E9446120C94441281E0089560
:1024A0000C944E120E94B21F0E94FA050E940D2049
:1024B0000C94F107AF92BF92CF92DF92EF92FF920E
:1024C0000F931F93CF93DF93CDB7DEB72A970FB645
:1024D000F894DEBF0FBECDBF0E940D070E945012C0
:1024E000811111C08FEF89838A831B820E94BB1FD9
:1024F0008160782F9D838C8349815A816B818D8186
:102500000E94F41240C087E9A82E82E0B82E00E0B5
:1025100010E0C02E802F0E946D07E82EF501D190AB
:102520005F01D82631F40F5F1F4F0A30110589F77C
:10253000D9CF8091360381FD0E94730780E0FF248C
:10254000F3949D2D9F21D1F08E83CF82EF2081E0E7
:1025500009F480E088870E94BB1F8160782F9A87EA
:1025600089874E815F8168858A850E94F412F8010F
:10257000E956FD4F8081F826F08205C08F5FFF0C81
:102580008730F9F6D0CF0E94BC210E94C00D0E9476
:10259000DA11909196028917B1F00E94DA118093B6
:1025A00096022A960FB6F894DEBF0FBECDBFDF911C
:1025B000CF911F910F91FF90EF90DF90CF90BF9040
:1025C000AF900C943B092A960FB6F894DEBF0FBE6D
:1025D000CDBFDF91CF911F910F91FF90EF90DF90D2
:1025E000CF90BF90AF900895CF93DF93CDB7DEB774
:1025F0002B970FB6F894DEBF0FBECDBF942F4F833D
:10260000252F588769877A878B874A855B85452B75
:1026100031F02F3F31F481E09F3F19F403C081E096
:1026200001C080E080FD09C08091A2029091A302C8
:1026300001969093A3028093A202DE01119686E098
:10264000FD0111928A95E9F785E0FE013796019028
:102650000D928A95E1F749815A816B817C818D8148
:102660009E810E94E1192B960FB6F894DEBF0FBE33
:10267000CDBFDF91CF910895FC01808191810E94AF
:10268000D51C0895CF938823B1F1C82F8CEF8C0F00
:10269000813AD0F46C2F8091D3019091D4010E94A3
:1026A0008A1E882349F06C2F8091D3019091D40128
:1026B0000E94151F0E94651D6C2F8091D30190917F
:1026C000D4010E940A1F0CC080E28C0F883058F49D
:1026D000C77081E001C0880FCA95EAF70E94171DF4
:1026E000CF910C94651DC03F30F08C2F0E94B1201B
:1026F000CF910C949E21CF910895882389F19CEF6E
:10270000980F913A40F4682F8091D3019091D401B1
:102710000E94151F0DC090E2980F983058F48770F2
:1027200091E001C0990F8A95EAF7892F0E941D1D3B
:102730000C94651D9BE5980F933020F480E090E0A9
:102740000C940E1298E5980F973120F480E090E0F9
:102750000C942412803F20F00E9419210C949E2199
:102760000895CF93C82F0E944213C93349F42FEF25
:1027700087EE93E0215080409040E1F700C00000D8
:102780008C2FCF910C947D13882321F00E94171D6C
:102790000C94651D0895882321F00E941D1D0C9442
:1027A000651D0895882321F00E942A1D0C94651D43
:1027B0000895882321F00E94301D0C94651D089512
:1027C0000E94371D0E94471D0E94651D0E94CF2256
:1027D0000C949E218091D3019091D4010E94201FDE
:1027E0000C94E0130E94241D0C94EA13E92FE29547
:1027F000EF704E2F50E0FA013297EE30F105B0F451
:10280000EA5AFF4F0C94432E803F91F018F4883E13
:1028100068F40EC0843F51F40BC0883E48F0813FFD
:1028200029F406C093FB882780F9089580E0089575
:1028300081E008950E94D51C0E94F61308958F929E
:102840009F92AF92BF92CF92DF92EF92FF920F933F
:102850001F93CF93DF936C01EB01FC01158112955F
:102860001F70028101110E94371D0E940D1D8823D7
:1028700099F0002389F08D2F807F803421F080E251
:102880008C0F883048F082E00E94AF1D0E940D1D21
:1028900091E0E82EE92601C0E12CBD2EB2942FE094
:1028A000B2228B2D90E0FC01EC59FF4F0C94432E8B
:1028B0009D2F9F708D2F807FF92E19F0F29490EF4D
:1028C000F922002399F0FF2009F47BC180E28C0FEC
:1028D000883010F0C11104C08F2D0E94171D03C055
:1028E0008F2D0E942A1D0E94651D6BC18C2F0E9496
:1028F0007D13FF2009F48AC180E28C0F883010F02C
:10290000C11104C08F2D0E941D1D03C08F2D0E9478
:10291000301D0E94651D7AC19D2F9F708D2F807F75
:10292000F92E803219F0F29480EFF822CC2319F0BE
:10293000C130C9F022C0002371F0112341F01130E1
:1029400031F40E944A1D8F290E94521D5FC10E94CE
:102950004A1D8F291DC0112319F0113009F456C1E9
:102960000E945B1D25C0002321F0163008F04EC1E7
:102970000EC0153008F04AC11BC0002361F01123BE
:1029800031F0F601858180FF1CC18F7085838F2D0A
:102990000E94C4133BC1112359F0C93309F022C16D
:1029A000FFEF27EE83E0F15020408040E1F718C1AF
:1029B0008F2D0E94CB132AC18C2F002319F00E9467
:1029C000B12002C00E9419210E949E2127C18D2F93
:1029D000837009F048C001111DC12C2F2295269546
:1029E0002770220F220F6C2F6F70862F90E0A0E0CF
:1029F000B0E0022E04C0880F991FAA1FBB1F0A94C3
:102A0000D2F7C4FF10C04FE050E060E070E004C0B7
:102A1000440F551F661F771F2A95D2F74095509592
:102A20006095709503C040E050E0BA012D2F2695C7
:102A3000269523704A015B01882A992AAA2ABB2A73
:102A4000C501B401223049F058F4213019F00E9438
:102A5000321BE0C00E94201BDDC00E94441BDAC074
:102A60000E941E1BD7C0002319F08D2F817001C05A
:102A70008695882309F4CEC02C2F229526952770A1
:102A8000220F220F6C2F6F70862F90E0A0E0B0E035
:102A9000022E04C0880F991FAA1FBB1F0A94D2F7E9
:102AA000C4FF10C04FE050E060E070E004C0440F8D
:102AB000551F661F771F2A95D2F740955095609550
:102AC000709503C040E050E0BA012D2F2695269561
:102AD00023704A015B01882A992AAA2ABB2AC501C8
:102AE000B401223049F058F4213019F00E94171C2B
:102AF00091C00E94051C8EC00E94291C8BC00E94A0
:102B0000581B88C02D2F2F70F22E002339F0822FF2
:102B10000E949E1B8C2F0E94C4137CC08C2F0E948D
:102B2000CB138F2D0E94BF1B75C0C23F01F128F44B
:102B3000C03F41F0C13FA1F040C0C33FF9F0C43FE6
:102B400039F13BC0002341F0153008F05FC08D2FF4
:102B50008F710E94E41B5AC0163008F057C0F7CF9F
:102B6000002339F08D2F8F710E949E1B4FC00023D0
:102B7000C9F38D2F8F710E94BF1B48C0002329F01D
:102B80008D2F8F710E94891B41C00E94641B3EC023
:102B9000002351F08D2F8F71F82E0E949E1B63E051
:102BA0008F2D0E949A1D32C081E00E94AF1D12300D
:102BB00068F182E00E94AF1D29C0002331F011238B
:102BC00089F28C2F0E94421321C0112391F2C93344
:102BD00049F49FEFE7EEF3E09150E040F040E1F779
:102BE00000C000008C2F0E947D1310C04D2F4F702D
:102BF0006C2FC6010E94A1090E948F1A0FC04D2F91
:102C00004F706C2FC6010E94A40908C088EF8B0D7D
:102C1000843020F40E94DA110E943B09CE010E9408
:102C2000F613811105C01092A3021092A20211C0E6
:102C3000002319F01111F7CF0CC01111F4CF8091BE
:102C4000A2029091A302029771F78C2F0E94B113F8
:102C5000EACFEE20E9F00E94091D80FD19C0F601BF
:102C600012820E94031D0E949E1BC6010E946D16C7
:102C70000E94031DDF91CF911F910F91FF90EF9064
:102C8000DF90CF90BF90AF909F908F900C94BF1B20
:102C9000DF91CF911F910F91FF90EF90DF90CF9038
:102CA000BF90AF909F908F9008950F931F93CF93F5
:102CB000DF93EC01688179818A810E94E01C8C019C
:102CC0000E943B1C0E940C1BB801CE010E941F14E5
:102CD000DF91CF911F910F910895CF93DF93EC0176
:102CE000988189812B813C81232B31F08F3F31F4F6
:102CF00081E09F3F19F403C081E001C080E080FDC6
:102D000019C0CE010E94540981110CC00E940D1DF2
:102D1000882381F08A81882369F082E0DF91CF9156
:102D20000C94AF1DCE010E945516CE01DF91CF91BC
:102D30000C941D09DF91CF910895CF93DF9300D0BC
:102D400000D01F92CDB7DEB70F900F900F900F906D
:102D50000F90DF91CF910895CF93DF9300D000D0F3
:102D600000D0CDB7DEB726960FB6F894DEBF0FBE03
:102D7000CDBFDF91CF9108951F93CF93DF93C09183
:102D8000A40216E08091A502C81799F0D0E01C9F1C
:102D9000F0011D9FF00D1124EA55FD4F4081518136
:102DA00062817381848195810E94AC162196C770DF
:102DB000E9CFDF91CF911F9108954091D6025091B4
:102DC000D7026091D8027091D9028091DA02909175
:102DD000DB020C94AC162091A4029091A50256E05F
:102DE0002917A9F030E0529FF001539FF00D1124F4
:102DF000EA55FD4F7181761306C07081781303C0C8
:102E00007281741306C02F5F3F4F2770E9CF80E0B7
:102E1000089581E00895DF92EF92FF920F931F9340
:102E2000CF93DF938091DB0282958F7009F06BC0A6
:102E30008091D802882309F466C0C091A40286E07C
:102E4000D82E8091A502C81709F45DC09091D602D2
:102E50004091D7022091D9023091DA022115310533
:102E600031F04F3F31F481E09F3F19F403C081E01E
:102E700001C080E0D0E080FD43C0DC9E8001DD9E8B
:102E8000100D1124F801EA55FD4F8181841338C0DB
:102E90008081891335C08281811132C0E380F48042
:102EA000E21AF30A20E04091D6025091D7026091D5
:102EB000D8027091D9028091DA020E94E10866ED91
:102EC00072E00E941608E816F906D0F48091DB0241
:102ED0008F7080618093DB02F801E555FD4F8081A2
:102EE0008F708061808386ED92E00E946D16DF9185
:102EF000CF911F910F91FF90EF90DF900C94BC1633
:102F00002196C7709ECFDF91CF911F910F91FF90B7
:102F1000EF90DF9008956F927F928F929F92AF9281
:102F2000BF92CF92DF92EF92FF920F931F93CF93B6
:102F3000DF93CDB7DEB761970FB6F894DEBF0FBE53
:102F4000CDBF7C0185E0F701DE011D9601900D9259
:102F50008A95E1F7D7017C9011960C911197129602
:102F60006C909091D6028091D7022091D902309135
:102F7000DA022115310531F08F3F31F481E09F3FB6
:102F800019F403C081E001C080E080FDE7C1F701D2
:102F9000C380D48086EDA82E82E0B82E1091D8028E
:102FA0004601821A930A20E04091D6025091D7023E
:102FB000112309F47FC1612F7091D9028091DA0247
:102FC0000E94E108B5010E9416082091DB02207FD3
:102FD0008816990608F025C19091D6023091D70243
:102FE0004091D9025091DA022111ADC0452B31F048
:102FF0003F3F31F481E09F3F19F403C081E001C0FD
:1030000080E080FD19C0031317C0791215C0162D7A
:10301000611012C08091DB028F7080618093DB02AF
:103020000E94DD1686ED92E00E946D168091DB0213
:10303000D70115968C93AFC120E04091D6025091F4
:10304000D7026091D8027091D9028091DA020E9471
:10305000E108B7010E941608843F914030F1C11485
:10306000D10439F00F3F39F481E0EFEF7E1203C055
:1030700003C081E001C080E080FD03C081E08625BF
:1030800002C080E090E080FF10C0462D602F872DA9
:103090000E94EB16882349F086ED92E00E946D169F
:1030A000E6EDF2E086E0DF01CDC0CD2839F00F3F3C
:1030B00039F481E0BFEF7B1203C003C081E001C09F
:1030C00080E080FD03C081E0862502C080E090E0C2
:1030D000E82FE170DE2E80FF2CC0462D602F872D5B
:1030E0000E94EB16182F811124C07D860E878D85D6
:1030F0009E850E94D51C292F22952F70223018F012
:10310000243090F405C09F7059F0811109C043C16B
:103110009F7031F0D70115969C91907F09F43BC1C7
:10312000805E883008F437C1C7010E946D161D2DDE
:1031300032C1162D662009F42EC18091DB02816018
:103140008093DB0284C0452B31F03F3F31F481E0B6
:103150009F3F19F403C081E001C080E080FD16C0EC
:10316000031314C0791212C0611010C08091DB02E9
:10317000F7018583C7010E946D1686E0F701A6ED71
:10318000B2E001900D928A95E1F703C17D860E872A
:103190008D859E850E941A148823F1F16620E1F145
:1031A0002091DB02822F82958F7090E0029774F05D
:1031B0008091D6029091D70298878F831986DB86FB
:1031C000CA862C87CE0107960E946D1686E0F7010D
:1031D000A6EDB2E001900D928A95E1F70E940B17DF
:1031E0000E94DD161CC09091D6022091D70240911A
:1031F000D9025091DA02452B61F12F3F61F581E050
:103200009F3F49F580FF29C07D860E878D859E856D
:103210000E941A14811136C0C7010E946D1611E078
:10322000BAC02111E0CF7C2DD98AC88A472D502FF2
:10323000662D89890E949D1686ED92E00E946D168A
:1032400086E0D5011D928A95E9F70E94DD1610E00F
:10325000A2C081E0D7CF80E0D5CF0213D5CF7912BD
:10326000D3CF6110D1CF8091DB02F7018583C701F5
:103270000E946D1686E0E6EDF2E0DF011D928A9570
:10328000E9F789C0662041F22091DB02822F829506
:103290008F7090E002970CF499CF8091D6029091B4
:1032A000D7029A8389831B82DD82CC822E83CE0152
:1032B00001968ACF60E07091D9028091DA020E9473
:1032C000E10866ED72E00E94160888169906B8F5C6
:1032D000162D662009F4A0CF9091D6022091D70236
:1032E0004091D9025091DA02452B31F02F3F31F451
:1032F00081E09F3F19F403C081E001C080E080FDC0
:103300000DC002130BC0791209C086E0F701A6EDCB
:10331000B2E001900D928A95E1F73DC07D860E875F
:103320008D859E850E941A14811150CF8091DB02F9
:1033300081608093DB02C7010E946D162CC07C2D3A
:10334000D98AC88A472D502F662D89890E949D16DB
:1033500086E0F50111928A95E9F71BC0662009F411
:103360005BCF7D860E878D859E850E941A14182F4F
:10337000882309F451CF86E0F701A6EDB2E0019071
:103380000D928A95E1F786ED92E00E943C130E942F
:103390000B170E94DD16812F61960FB6F894DEBFE1
:1033A0000FBECDBFDF91CF911F910F91FF90EF9096
:1033B000DF90CF90BF90AF909F908F907F906F9055
:1033C00008951F93CF93DF93CDB7DEB72C970FB639
:1033D000F894DEBF0FBECDBF4F83588769877A87C9
:1033E0008B879C87CE0107960E948B178823D1F08C
:1033F0009F8188852A853B85232B31F08F3F31F4CF
:1034000081E09F3F19F403C081E001C080E080FDAE
:1034100047C04F81588569857A858B859C850E9438
:10342000AC163EC086E0FE013796DE011196019093
:103430000D928A95E1F7FF81E8856A857B856115A4
:10344000710531F0EF3F31F481E0FF3F19F403C023
:1034500081E001C080E080FD23C02091A50230E022
:10346000C9010196877099274091A40250E0841702
:103470009507F1F1F983EA837D836C8396E0929F4F
:10348000D001939FB00D1124AA55BD4FFE01319676
:1034900001900D929A95E1F78093A5020E94BC16C7
:1034A00016E08091A4029091A502891771F1189FEE
:1034B000C00111248A559D4F0E948B17882329F142
:1034C000E091A4021E9FF0011124EA55FD4F4081B6
:1034D000518162817381848195810E94AC168091B3
:1034E000A40290E00196877099278093A402D9CF17
:1034F0000E94F2131092A5021092A402E6EDF2E0EF
:1035000086E0DF011D928A95E9F72C960FB6F894B4
:10351000DEBF0FBECDBFDF91CF911F910895EF9217
:10352000FF920F931F93CF93DF938C01892B09F4A4
:103530006CC0F12CEE24E394E8012196F80184910B
:10354000843740F4843008F051C0813081F08230FB
:1035500019F15BC0853709F444C0A8F19CE7980FC6
:10356000903708F052C08F770E947D1341C00E5FE4
:103570001F4FFE01849190E2980F983050F48770AD
:10358000FE2D01C0FF0F8A95EAF78F2F0E943A1D8A
:1035900014C00E9442132DC00E5F1F4FFE01849184
:1035A00090E2980F983060F48770FE2D01C0FF0FF5
:1035B0008A95EAF78F2F0E94401D0E94651D19C051
:1035C0000E947D1316C00E5F1F4FFE01C491CC23D5
:1035D00081F08FE99FE00197F1F700C00000C15032
:1035E000F6CF0E5F1F4FFE01F49003C00E944213FE
:1035F0008E018F2D882309F49FCFEFE9FFE03197EB
:10360000F1F700C000008150F5CFDF91CF911F91FD
:103610000F91FF90EF900895089508950C940D1B5D
:103620000C940E1B0E94101B60930D0370930E03ED
:1036300080930F03909310030C94E0130C94121BCF
:103640000F931F9300910D0310910E0320910F0310
:1036500030911003602B712B822B932B1F910F91B4
:103660000C94121B0F931F9300910D0310910E03E6
:1036700020910F0330911003602371238223932341
:103680001F910F910C94121B0F931F9300910D0328
:1036900010910E0320910F033091100360277127C2
:1036A000822793271F910F910C94121B0C940D1BD2
:1036B0000E94561B6093090370930A0380930B03C7
:1036C00090930C030C94E01360E070E0CB010C9439
:1036D000581B611571058105910529F481E044238A
:1036E00061F080E00895DC01CB0104C0B695A79598
:1036F000979587954A95D2F781700895482F6091E4
:10370000090370910A0380910B0390910C030C94B0
:10371000691B0F931F9341E050E060E070E08A0165
:103720009B0104C0000F111F221F331F8A95D2F77F
:10373000C901B8011F910F910C94581B0F931F934F
:1037400041E050E060E070E004C0440F551F661F88
:10375000771F8A95D2F78091090390910A03A0916F
:103760000B03B0910C038A019B01082B192B2A2B08
:103770003B2BC901B8011F910F910C94581B0F935B
:103780001F9341E050E060E070E004C0440F551F1B
:10379000661F771F8A95D2F7409550956095709572
:1037A0008091090390910A03A0910B03B0910C033F
:1037B0008A019B01082319232A233B23C901B8014D
:1037C0001F910F910C94581B0F931F9341E050E0F1
:1037D00060E070E004C0440F551F661F771F8A9594
:1037E000D2F78091090390910A03A0910B03B09145
:1037F0000C038A019B01082719272A273B27C901A7
:10380000B8011F910F910C94581B0F931F930091B7
:10381000090310910A0320910B0330910C03602BD4
:10382000712B822B932B1F910F910C94581B0F938C
:103830001F930091090310910A0320910B0330910B
:103840000C0360237123822393231F910F910C9407
:10385000581B0F931F930091090310910A032091A5
:103860000B0330910C0360277127822793271F9148
:103870000F910C94581B089527E0929F800D1124FE
:10388000E82FE695E695E695877051E001C0550F63
:103890008A95EAF785E0E89FF0011124E452FD4F94
:1038A00020E030E070E04081CB01022E02C096950E
:1038B00087950A94E2F78170819584278523842770
:1038C00081932F5F3F4F2530310569F7089527E039
:1038D000929F800D1124682F669566956695982FA6
:1038E000977085E0689FB001112440E050E080E0CF
:1038F000FB01E40FF51FE452FD4F208130E0092E5B
:1039000002C0369527950A94E2F721703327042EDA
:1039100001C0220F0A94EAF7822B4F5F5F4F4530B8
:10392000510531F70895BF92CF92DF92EF92FF9247
:103930000F931F93CF93DF938C01C0900903D09016
:103940000A03E0900B03F0900C0380910D0390911B
:103950000E03A0910F03B0911003C82AD92AEA2AB6
:10396000FB2ACFE1D0E0D701C6010C2E04C0B695EA
:10397000A795979587950A94D2F780FD04C0219763
:1039800090F7B12C07C0BC2EB8018C2F0E94C00943
:103990000197A9F38B2DDF91CF911F910F91FF908C
:1039A000EF90DF90CF90BF900895CF93DF93EC011D
:1039B0000E94931CBE010E94C009DF91CF9108951F
:1039C0001F93CF93DF93EB019091A102992321F0F4
:1039D000CB010E94D51C13C0882349F0CB010E9463
:1039E000931C182F682FCE010E943C1C04C0CB01F1
:1039F0000E94671C182FBE01812F0E94C009DF9111
:103A0000CF911F9108958091110385958595859596
:103A10000895809111038770089590911103977014
:103A200081E009F480E00895809135030895909134
:103A30003503892B80933503089580959091350344
:103A4000892380933503089510923503089580915A
:103A50003403089590913403892B8093340308959F
:103A600080959091340389238093340308951092B4
:103A70003403089590913303892B80933303089581
:103A80008095909133038923809333030895109296
:103A90003303089580911203089508950C944D1DE9
:103AA0000C944E1D90911203981721F080931203ED
:103AB0000C94501D089580911203882329F01092D0
:103AC000120380E00C94501D0895E091D301F09111
:103AD000D401809135038083E091D301F091D4012A
:103AE000908180913403892B8083E091D301F09100
:103AF000D401908180913303892B808380911203BC
:103B0000882381F0E091D301F091D4019081892B39
:103B100080838091D3019091D4010E94741E811101
:103B20000E945B1D8091D3019091D4010C94E61109
:103B30000C944D1D98E0899F90011124262B209311
:103B400011030E949E1B8091110385958595859593
:103B50000C94981D1092110380E00C94981D2091F4
:103B600011038095822380931103982F977079F425
:103B700030E0482F082E000C550B2417350739F07C
:103B80008595859585950E94BF1B0C94AA1D089567
:103B900080E090E00E945E2E21E08C3E9E4F09F076
:103BA00020E0822F089582E090E00C94562E83E06E
:103BB00090E00C94562E682F83E090E00C94642ED5
:103BC000CF9384E090E00E94562EC82F81E290E0CF
:103BD0000E94562E2C2F30E0A901582BCA01CF91FC
:103BE0000895CF93C92F682F84E090E00E94642E3F
:103BF0006C2F81E290E0CF910C94642EAB01BC015C
:103C00008FE090E00C94762EAB01BC0183E190E054
:103C10000C94762E60E070E0CB010C94041E60E002
:103C200070E0CB010E94FE1D0C940A1E6CEE7EEF2C
:103C300080E090E00E94822E60E082E090E00E94AE
:103C4000642E60E083E090E00E94642E10920D03E9
:103C500010920E0310920F031092100360E084E0A4
:103C600090E00E94642E60E081E290E00E94642E69
:103C700060E085E090E00E94642E60E086E090E0E5
:103C80000E94642E6FEF87E090E00E94642E40E077
:103C900050E0BA0188E090E00E94762E60E08DE06E
:103CA00090E00E94642E40E050E0BA0188E190E08C
:103CB0000E94762E60E087E190E00E94642E40E052
:103CC00050E0BA018CE190E00E94762E60E080E244
:103CD00090E00E94642E0C940F1E0C94161E682F08
:103CE0008EE090E00C94642EFC0132968091F301FA
:103CF000882331F080916F0387FF02C09EE101C0ED
:103D000096E080E0915028F021912223D9F38F5F33
:103D1000F9CF0895662351F12091F3012223E9F0B0
:103D200020916F0327FF19C0462F4695469546956B
:103D30004E31E0F4677021E030E002C0220F331F03
:103D40006A95E2F7FC01E40FF11D828190E02823DF
:103D5000392381E0232B69F409C0FC0132960896CF
:103D60002191621729F0E817F907D1F780E008954B
:103D700081E008959C01FC0132969FEF80E0419123
:103D8000461789F09F3F19F4411101C0982F8F5FAA
:103D90008630A9F79F3F39F0F901E90FF11D97FD32
:103DA000FA956283089508959C012A5F3F4FFC01B4
:103DB0004281461301C01282019682179307B9F718
:103DC0000895262F2695269526952E3168F4FC0118
:103DD000E20FF11D677021E030E001C0220F6A950B
:103DE000EAF78281282B22830895262F269526958F
:103DF00026952E3170F4FC01E20FF11D677021E071
:103E000030E001C0220F6A95EAF7209582812823CD
:103E1000228308952091F301222329F020916F033A
:103E200027FD0C94E11E0C94BA1E2091F30122236D
:103E300029F020916F0327FD0C94F51E0C94D41EDD
:103E40002091F301FC013296222331F080916F031F
:103E500087FF02C08EE101C086E0DF011D928A95D6
:103E6000E9F7089508950C94321F0C94321FCF93F4
:103E70000E94351F0E940D070E94331FC0E08C2F47
:103E80000E946D07811104C0CF5FCA30C1F701C025
:103E900081E0CF9108950C94321F0C944B1F0E9427
:103EA0004D1F80916204843049F11092370320E461
:103EB00088E190E00FB6F894A895809360000FBE5B
:103EC0002093600080E00E943B090E944D1F83B751
:103ED000817F846083BF83B7816083BF7894889536
:103EE00083B78E7F83BF0FB6F894A895809160004A
:103EF000886180936000109260000FBE08950C945A
:103F0000321F0E94F2130E94DA110E943B090C94A6
:103F10007F1F1F920F920FB60F9211248F939F93C2
:103F2000AF93BF9380913703811113C080916B03CE
:103F300090916C03A0916D03B0916E034196A11D09
:103F4000B11D80936B0390936C03A0936D03B093AA
:103F50006E03BF91AF919F918F910F900FBE0F9005
:103F60001F90189582E084BD93E095BD9AEF97BDB0
:103F700080936E0008952FB7F89480916B03909111
:103F80006C03A0916D03B0916E032FBF08959C0147
:103F90004FB7F89480916B0390916C03A0916D03DF
:103FA000B0916E034FBF821B930B089578941F92BC
:103FB0000F920FB60F9211248F939F93AF93BF93DD
:103FC00080916B0390916C03A0916D03B0916E038F
:103FD0000196A11DB11D80936B0390936C03A09378
:103FE0006D03B0936E03BF91AF919F918F910F902E
:103FF0000FBE0F901F90189587E797E790930108E1
:10400000809300089AE088E10FB6F894A895809311
:1040100060000FBE90936000FFCF0E94C81D811109
:1040200002C00E946D1E0E94D31D809336030E9421
:10403000E01D9093700380936F030E94D71D682F3B
:1040400070E080E090E00E941E1B60910903709177
:104050000A0380910B0390910C030C94561B8091E2
:104060003E0380FF0BC06091DA0185E0689FB001DC
:10407000112475956795759567952BC081FF09C0CB
:104080006091DA0185E0689FB0011124759567950C
:1040900020C082FF07C06091DA0185E0689FB0010F
:1040A000112417C090913D039923D1F06091D9015B
:1040B000961788F72091DA0185E0289F9001112456
:1040C000929FA001939F500D112470E0CA010E949D
:1040D0002F2E6038710540F46115710519F406C082
:1040E00065E070E0862F08958FE7089581E00895D8
:1040F00080913E0380FF08C06091D60170E0759505
:1041000067957595679521C081FF06C06091D601BE
:1041100070E07595679519C082FF04C06091D60163
:1041200070E010C090913C03992399F06091D50103
:104130009617A0F78091D601899FC001112470E0E5
:104140000E942F2E6038710540F46115710519F435
:1041500006C061E070E0862F08958FE7089581E042
:104160000895803F21F40E942F20819504C0813F53
:1041700029F40E942F20809342030895823F21F466
:104180000E942F20819504C0833F29F40E942F2094
:10419000809341030895893F19F40E94782005C057
:1041A0008A3F31F40E9478208195809343030895DB
:1041B0008B3F21F40E947820819504C08C3F29F424
:1041C0000E947820809344030895843F21F48091D5
:1041D0004003816017C0853F21F4809140038260D5
:1041E00011C0863F21F48091400384600BC0873F5B
:1041F00021F480914003886005C0883F31F48091AC
:10420000400380618093400308958D3F21F48091A5
:104210003E0381600BC08E3F21F480913E0382609B
:1042200005C08F3F29F480913E03846080933E0354
:104230000895803F39F48091420387FF6AC010924D
:10424000420367C0813F29F4809142031816BCF3F2
:1042500060C090914103823F29F497FF5AC01092A9
:10426000410357C0833F19F41916CCF352C0909103
:104270004303893F31F419160CF04BC010924303ED
:1042800048C08A3F19F497FF44C0F8CF8B3F39F4F8
:104290008091440387FF3DC0109244033AC08C3F95
:1042A00029F4809144031816BCF333C0843F21F4F1
:1042B000809140038E7F17C0853F21F48091400399
:1042C0008D7F11C0863F21F4809140038B7F0BC00E
:1042D000873F21F480914003877F05C0883F31F4F8
:1042E000809140038F7E8093400313C08D3F21F463
:1042F00080913E038E7F0BC08E3F21F480913E0360
:104300008D7F05C08F3F29F480913E038B7F809382
:104310003E0380914103811106C0809142038111C7
:1043200002C010923D0380914303811106C0809129
:104330004403811102C010923C0308950E94BB1FE8
:1043400020914103211104C020914203222321F036
:1043500090933B0380933A0320914303211104C0BF
:1043600020914403222321F0909339038093380352
:104370008FE393E00C940012EF92FF920F931F9340
:10438000CF93DF9300D000D000D0CDB7DEB786E06A
:10439000EFE3F3E0DE01119601900D928A95E1F7CB
:1043A000E0904103F09042030091430310914403D5
:1043B000109241031092420310924303109244035F
:1043C000E11003C0FF2009F45DC080913A03909191
:1043D0003B030E94C71FAC0190913D03992339F024
:1043E0002091DB0130E02417350758F04BC02091B5
:1043F000DC018AE0289F900111242417350718F06A
:1044000041C09F3F19F09F5F90933D03EE2061F004
:104410000E942F201E1414F09FEF01C091E0989F7E
:10442000902D112490934103FF2061F00E942F20D2
:104430001F1414F09FEF01C091E0989F902D11245C
:1044400090934203309141033323E1F020914203E2
:104450002223C1F045EB3403C0011124992319F044
:104460009093410303C081E08093410335EB230324
:10447000C0011124992319F09093420303C081E0F5
:1044800080934203011103C0112309F45DC08091A0
:104490003803909139030E94C71FAC0190913C03EF
:1044A000992339F02091D70130E02417350758F0CF
:1044B0004BC02091D8018AE0289F90011124241735
:1044C000350718F041C09F3F19F09F5F90933C0360
:1044D000002361F00E947820101614F09FEF01C0B5
:1044E00091E0989F902D112490934303112361F044
:1044F0000E947820111614F09FEF01C091E0989F60
:10450000902D112490934403309143033323E1F021
:10451000209144032223C1F045EB3403C001112450
:10452000992319F09093430303C081E080934303E0
:1045300035EB2303C0011124992319F09093440310
:1045400003C081E0809344038091410381110BC03B
:1045500080914203811107C080914303811103C000
:104560008091440381110E949E21EB82FC820D8385
:104570001E8386E0FE013196AFE3B3E001900D9219
:104580008A95E1F726960FB6F894DEBF0FBECDBF31
:10459000DF91CF911F910F91FF90EF900895EFE37E
:1045A000F3E086E0DF011D928A95E9F710923D0362
:1045B00010923C0310923E030895881F8827881F9D
:1045C000089591E0883F08F490E0892F0895982F8E
:1045D000907F903BF1F038F49039D9F0903AC9F0DF
:1045E0009038C9F416C0903D49F018F4903C31F071
:1045F00012C0903E71F0903F19F00DC082E0089516
:10460000815F8F3040F4E82FF0E0EB5FFD4F808159
:10461000089583E0089580E008950F93022F0F77A7
:10462000242F2F776F70462F406BDC01ED91FC91AA
:1046300063E070E009950F9108950F93022F0F77B3
:10464000242F2F776F70462F4069DC01ED91FC918C
:1046500063E070E009950F9108950F93022F0F7793
:10466000242F2F776F70462F4068DC01ED91FC916D
:1046700063E070E009950F9108950F931F93411522
:1046800020E252073CF44115A0EE5A0734F09A019B
:10469000305E05C02FEF3FE302C020E030E089012B
:1046A000000F012F001F110B11952F77462F4F7010
:1046B000406EDC01ED91FC9163E070E009951F9183
:1046C0000F910895FC01738362830895FC01758F37
:1046D000648F0895CF93DF93EC011DA21FA21EA249
:1046E000BC01685D7F4F40EC88519F4F0E948D2533
:1046F0001B821A821D821C821F821E8219861886C6
:104700001B861A861D861C861F861E86198A188A95
:104710001B8A1A8A1D8A1C8A1F8A1E8A198E188E65
:104720001B8E1A8E1D8E1C8E1F8E1E8E19A218A215
:10473000DF91CF910895EF92FF920F931F93CF9344
:10474000DF93EA018A01060F111D88519F4F7C01FA
:10475000C017D10729F06991C7010E949425F8CFAD
:10476000DF91CF911F910F91FF90EF900895FC0181
:10477000718360830895FC0171A360A30895AF92D3
:10478000BF92CF92DF92EF92FF920F931F93CF933E
:10479000DF9300D01F92CDB7DEB77C016B01142FE1
:1047A000B22EA02EDC0195968C9195978430F1F471
:1047B0005A96ED91FC915B97309709F4BEC0CB01FE
:1047C000019763E070E00E941B2ECB01880F991FB8
:1047D000860F971F4983BA820B834C2D481B9E017D
:1047E0002F5F3F4FBC01C7010995B4C0623071050E
:1047F00009F452C06330710529F06130710509F088
:1048000099C080C0842F807F803AF9F058F48038B6
:10481000B1F0803909F091C0D7011496ED91FC9167
:1048200015972AC0803EB9F0803FD9F0803B09F04F
:1048300084C0D7011296ED91FC9113971DC0D7014A
:104840001696ED91FC91179717C0D7011896ED9128
:10485000FC91199711C0D7011A96ED91FC911B9705
:104860000BC0423F09F069C0D7011C96ED91FC9145
:104870001D97309731F461C0309709F45EC0123F44
:1048800021F42A2D4B2D62EF04C02A2D4B2D612FD0
:104890006F70C70109955EC0842F807F803D59F0FD
:1048A000803F79F0803C09F048C0D7011E96ED9119
:1048B000FC911F9718C0D7015096ED91FC9151972C
:1048C00012C0433F31F4D7015296ED91FC915397BA
:1048D00007C0413F91F5D7015496ED91FC91559752
:1048E000309739F42AC0309741F1812F8D7F813F75
:1048F00019F44B2D612F03C04B2D612F6F70C70131
:10490000099528C0842F0E94E122882331F0D70125
:104910005696ED91FC91579707C0163F71F4D70159
:104920005896ED91FC915997309739F0612FC70156
:10493000099510C064307105D8F4D7015C96ED91EB
:10494000FC915D97309731F00A2D2B2D412FB60148
:10495000C7010995D7015E96ED91FC915F9730975D
:1049600051F00A2D2B2D412FB601C701099503C027
:10497000C12CD12CE2CF0F900F900F90DF91CF91EF
:104980001F910F91FF90EF90DF90CF90BF90AF906D
:104990000895FF920F931F93CF93DF93EC01162F8F
:1049A000862F0E94E122882369F0FDA081E08DA37B
:1049B00000E020E0412F61E070E0CE010E94BF23C3
:1049C000FDA270C0812F0E94DD224DA1882309F431
:1049D00040C0443029F01AA381E090E09FA38EA349
:1049E000812F0E94E722813031F070F0823051F047
:1049F000833041F02AC08DA300E020E0412F61E028
:104A000070E01EC08DA34EC0103FB1F0173FE9F417
:104A10002EA13FA1C90163E070E00E941B2EFE01A0
:104A2000E80FF91F12A3B9016F5F7F4F7FA36EA339
:104A30000CA12BA14AA104C084E08DA31AA329C014
:104A4000CE010E94BF231DA22DC01DA21FA21EA227
:104A500029C0442339F12EA13FA1C90163E070E0D0
:104A60000E941B2EFE01E80FF91F12A3B9016F5F10
:104A70007F4F7FA36EA38130910581F0029791F45F
:104A80000CA12BA14AA1CE010E94BF238DA184308D
:104A900049F081E090E09FA38EA304C0423011F45E
:104AA00000E0EFCFDF91CF911F910F91FF9008951C
:104AB000CF92DF92EF92FF920F931F93CF93DF93EA
:104AC000EC01E8A1F9A1309709F009956E0188EE93
:104AD000C80ED11CC6010E94C425E12CF12C082F60
:104AE00010E0E016F10680F460E0C6010E94DA25CD
:104AF000682FCE010E94C92461E0C6010E94EB2507
:104B00008FEFE81AF80AEDCFDF91CF911F910F9147
:104B1000FF90EF90DF90CF900895FC014283748363
:104B200063831182108208951F93CF93DF93EC016A
:104B3000162F0E940326E82F298130E0C901019633
:104B40006A8170E00E942F2E488150E084179507FB
:104B500029F48E2F0E94062680E012C08B819C8152
:104B6000DC01A20FB31F1C93898190E001966A813A
:104B700070E00E942F2E89838E2F0E94062681E0EE
:104B8000DF91CF911F9108950F931F93CF938C01C5
:104B90000E940326F801C1812081C21718F4F80190
:104BA0009281C90FC21B0E9406268C2FCF911F91A4
:104BB0000F910895FC012081862F90E0820F911DB6
:104BC000628170E00E942F2E0380F481E02DE80FB7
:104BD000F91F808108951F93CF93DF93EC01162F67
:104BE0000E940326282F3881812F90E0830F911D8A
:104BF0006A8170E00E942F2E8883822FDF91CF91EF
:104C00001F910C9406268FB7F89408958FBF0895CE
:104C1000089508950F931F93CF93DF93CDB7DEB719
:104C200027970FB6F894DEBF0FBECDBF8C01CE0123
:104C300001960E947128882309F18A810E94E72247
:104C40009A819D839B819E839C819F8381110EC04D
:104C50008981843041F0873031F0863031F0853001
:104C600031F781E003C083E001C082E0AE014B5F19
:104C70005F4F682FC8010E949B23D9CF27960FB69C
:104C8000F894DEBF0FBECDBFDF91CF911F910F9182
:104C90000895DF92EF92FF920F931F93CF93DF93CC
:104CA00000D000D0CDB7DEB77B01142FD22E4A83BF
:104CB0002B830C83842F0E94E72281111CC082E089
:104CC000E816F10471F083E0E816F10421F0EA94AB
:104CD000EF28C1F40CC0073F11F487E006C084E060
:104CE00004C087EFD812FBCF86E0898307C0173F47
:104CF000B1F785E0FACF12951F701983CE010196A6
:104D00000E946C280F900F900F900F90DF91CF9121
:104D10001F910F91FF90EF90DF9008950E94990BE3
:104D200081E793E00E946A2369E476E281E793E0F9
:104D30000E94B7236AE076E281E793E00E94BB23FA
:104D400068E076E281E793E00E94662369E076E21C
:104D500081E793E00C946223209162042430D9F41B
:104D60009B01FC0181818F708093E90040E050E05D
:104D700064E070E0C9010E94322981110FC0909156
:104D8000E800892F807295FD08C09091E8009E7719
:104D90009093E800089582E0089580E008952091BE
:104DA00062042430A1F4FC0181818F708093E900BA
:104DB0002091F3008091F20090E0922B892B49F032
:104DC0008091E8008E778093E8000C94DB2A82E0E3
:104DD000089580E00895FC0180916204843059F4C4
:104DE00091819F709093E9008091E80080FF03C05B
:104DF000CF010C94CF26089520916204243011F045
:104E000080E00895FC0186818F708093E900809195
:104E1000E80082FFF5CF8091E80085FFF1CFCB015C
:104E200040E050E064E070E00E947D298091E8005D
:104E300085FD05C08091E8008B778093E80081E0D4
:104E40000895809165030895089522E02093E90074
:104E50002FEF3091E800215035FD06C035ED3A9531
:104E6000F1F700002111F5CF2091E80025FF0BC0DC
:104E700040E050E066E070E00E9432298091E80056
:104E80008E778093E8000895CF93DF932091F3010C
:104E9000222339F020916F0327FF03C060E222E054
:104EA00002C068E021E02093E9002FEF3091E80094
:104EB000215035FD06C035ED3A95F1F7000021117E
:104EC000F5CF2091E80025FF1DC0EC018091F30192
:104ED000811105C040E050E068E070E003C070E080
:104EE00040E050E0CE010E9432298091E8008E77A8
:104EF0008093E80080E2FE01A5E4B3E001900D920A
:104F00008A95E1F7DF91CF9108950895809161042A
:104F1000811109C00E940E2B0E946B2B8091E20030
:104F200084608093E20008951092610408950895CA
:104F300008950C94811F42E061EC81E00E94872A71
:104F400042E261EC82E00E94872A42E361E883E06A
:104F50000E94872A42E361E884E00C94872A8091CA
:104F60006404833009F460C030F4813071F0823021
:104F700009F499C008958A3009F485C08B3009F48A
:104F80006BC0893009F0A7C020C080916304813ACA
:104F900009F0A1C08091E800877F8093E8008091AC
:104FA000670490916804892B21F460E285E493E022
:104FB00003C060E080E090E070E00E94C82980912A
:104FC000E8008B778093E800089580916304813234
:104FD00009F081C08091670490916804029708F0FD
:104FE0007AC08091E800877F8093E8008091E80094
:104FF00082FD05C0809162048111F8CF6CC02091C0
:10500000F3008091F20090E0922B029729F48091B6
:10501000F1008B7F813021F48091F1008093650352
:105020008091E8008B7753C080916304813A09F046
:1050300052C08091670490916804892B09F04BC09D
:105040008091E800877F8093E8008091E80080FFEE
:10505000FCCF8091F30136C0809163048132D9F591
:105060008091670490916804892BA9F58091E800EC
:10507000877F8093E8000E94BC2A8091650480931A
:10508000F3010C94F21380916304813221F5809135
:10509000E800877F8093E8000E94BC2A8091660424
:1050A00080936603089580916304813AA1F480910E
:1050B000E800877F8093E8008091E80080FFFCCFC4
:1050C000809166038093F1008091E8008E77809351
:1050D000E8000C94BC2A0895BC018DED91E00C947D
:1050E000AC26BC018DED91E00C94FC260E948E262E
:1050F00084B7877F84BF0FB6F894A895809160002D
:10510000886180936000109260000FBE90E080E89C
:105110000FB6F89480936100909361000FBE0E94D7
:1051200048120E940E2B0E946B2B8091E20084603B
:105130008093E20078940E94002E0E94521289EE21
:1051400091E00E94D51180916204853069F40E943B
:105150004F1F809160048823B1F30E94371F88237A
:1051600091F30E941C29EFCF0E945A128DED91E01D
:105170000E94EB26E8CF0C94BD28292F332723303B
:105180003105C9F060F42130310581F0223031055C
:1051900009F04AC08FE990E020E136E049C02132B1
:1051A000310511F12232310579F13EC082E190E002
:1051B0002FEA36E03DC099278130910561F040F03B
:1051C0008230910559F0039779F5E8EEF5E008C0D3
:1051D000ECE0F6E005C0E0E0F6E002C0EEEEF5E05F
:1051E000849190E09F0124C06115710541F0613008
:1051F0007105D1F489E090E02BE336E019C089E035
:1052000090E022E236E014C06115710541F0613092
:10521000710551F48AE890E021EC36E009C080E4A1
:1052200090E02BE437E004C080E090E020E030E044
:10523000FA0131832083089580E189BD82E189BD2F
:1052400009B400FEFDCF8091D8008F7D8093D800F7
:105250008091E00082608093E0008091E00081FD19
:10526000FCCF0895CF92DF92EF92FF920F931F939E
:10527000CF93DF93EC018B017A010E94DB2A81112D
:1052800033C0E114F10439F0F70180819181081BEA
:10529000190BC80FD91FC12CD12C0115110519F1FB
:1052A0008091E80085FD16C08091E8008E7780939C
:1052B000E800E114F10449F0F70180819181C80E02
:1052C000D91ED182C08285E00FC00E94DB2A8823CC
:1052D00021F30AC089918093F10001501109FFEF79
:1052E000CF1ADF0ADACF80E0DF91CF911F910F91C3
:1052F000FF90EF90DF90CF900895CF92DF92EF92E2
:10530000FF920F931F93CF93DF93EC018B017A01F0
:105310000E94DB2A811133C0E114F10439F0F70156
:1053200080819181081B190BC80FD91FC12CD12C6A
:105330000115110519F18091E80085FD16C08091D5
:10534000E8008B778093E800E114F10449F0F7015D
:1053500080819181C80ED91ED182C08285E00FC0A4
:105360000E94DB2A882321F30AC08091F1008993EF
:1053700001501109FFEFCF1ADF0ADACF80E0DF9189
:10538000CF911F910F91FF90EF90DF90CF900895F4
:105390002091690430916A042617370748F0611597
:1053A000710539F42091E8002E772093E80001C0C0
:1053B000B901FC0120E06115710579F18091620469
:1053C0008823F1F18530F1F18091E80083FD3CC044
:1053D0008091E80082FD2EC08091E80080FFEBCF35
:1053E0002091F3008091F20090E0922B61157105FD
:1053F00051F08830910538F421912093F1006150EB
:1054000071090196F3CF21E0089709F020E080911F
:10541000E8008E778093E800CECF2111CFCF0AC06D
:1054200080916204882361F0853061F08091E8000A
:1054300083FD0AC08091E80082FFF2CF80E00895EA
:1054400082E0089583E0089581E008952091690441
:1054500030916A042617370748F06115710539F451
:105460002091E8002E772093E80001C0B901FC01EB
:1054700020E06115710591F180916204882309F49F
:1054800040C0853009F43FC08091E80083FD3DC0F5
:105490008091E80082FD2FC08091E80080FFE9CF75
:1054A0002091F3008091F20090E0922B611571053C
:1054B00059F08830910540F424912093F100319601
:1054C000615071090196F2CF21E0089709F020E0C0
:1054D0008091E8008E778093E800CBCF2111CCCF6C
:1054E0000AC080916204882361F0853061F0809168
:1054F000E80083FD0AC08091E80082FFF2CF80E0DF
:10550000089582E0089583E0089581E00895982F3A
:10551000973068F59093E900981739F07091EC0096
:105520002091ED005091F00003C0242F762F50E021
:1055300021FD02C09F5FECCF3091EB003E7F3093A6
:10554000EB003091ED003D7F3093ED003091EB00AA
:1055500031603093EB007093EC002093ED0050939A
:10556000F0002091EE0027FDE5CF80E008958F70D8
:105570008093E90081E008958091630487FF11C062
:105580008091E80082FD05C0809162048111F8CF0E
:1055900011C08091E8008B770BC080916204882352
:1055A00049F08091E80080FFF8CF8091E8008E7785
:1055B0008093E80008952091E4003091E50095E69D
:1055C0004091EC00842F817040FF23C08091E8005F
:1055D00080FD1DC080916204882399F0853099F088
:1055E0008091EB0085FD11C04091E4005091E500F1
:1055F0002417350729F3915011F09A01E1CF84E087
:10560000089582E0089583E0089581E0089580E0A0
:1056100008954091E80042FFDDCF08950E947C2B61
:105620000E94842BE0EEF0E0808181608083E8EDD1
:10563000F0E080818F77808319BCA7EDB0E08C917A
:105640008E7F8C9380818F7E808310926104089579
:105650000F931F93CF93DF930E947C2B0E94842B88
:10566000C8EDD0E088818F778883888180688883BF
:1056700088818F7D888319BC1092620410925E0429
:105680001092600410925F0400EE10E0F801808137
:105690008B7F808388818160888342E060E080E046
:1056A0000E94872AE1EEF0E080818E7F8083E2EE27
:1056B000F0E0808181608083808188608083F80150
:1056C00080818E7F8083888180618883DF91CF9104
:1056D0001F910F910895E8EDF0E080818F7E808327
:1056E000E7EDF0E080818160808384E082BF81E02B
:1056F000809361040C94282BE8EDF0E080818E7F8C
:1057000080831092E20008951092DA001092E10076
:1057100008951F920F920FB60F9211242F933F936B
:105720004F935F936F937F938F939F93AF93BF93A9
:10573000EF93FF938091E10082FF0BC08091E20024
:1057400082FF07C08091E1008B7F8093E1000E947F
:10575000FF2D8091DA0080FF1FC08091D80080FF6C
:105760001BC08091DA008E7F8093DA008091D9008F
:1057700080FF0DC080E189BD82E189BD09B400FED2
:10578000FDCF81E0809362040E94862705C019BC8A
:10579000109262040E9494278091E10080FF19C05A
:1057A0008091E20080FF15C08091E2008E7F80939F
:1057B000E2008091E20080618093E2008091D80055
:1057C00080628093D80019BC85E0809362040E94B7
:1057D00098278091E10084FF30C08091E20084FF2F
:1057E0002CC080E189BD82E189BD09B400FEFDCFF6
:1057F0008091D8008F7D8093D8008091E1008F7ECA
:105800008093E1008091E2008F7E8093E20080919E
:10581000E20081608093E20080915E04882311F0B1
:1058200084E007C08091E30087FD02C081E001C0F1
:1058300083E0809362040E9499278091E10083FFB6
:1058400029C08091E20083FF25C08091E100877F1D
:105850008093E10082E08093620410925E04809164
:10586000E1008E7F8093E1008091E2008E7F809343
:10587000E2008091E20080618093E20042E060E01B
:1058800080E00E94872A8091F00088608093F00079
:105890000E949727FF91EF91BF91AF919F918F91B8
:1058A0007F916F915F914F913F912F910F900FBE1C
:1058B0000F901F9018951F920F920FB60F92112400
:1058C0002F933F934F935F936F937F938F939F9308
:1058D000AF93BF93CF93DF93EF93FF93C091E90012
:1058E000CF708091EC00D82FD17080FDD0E810925D
:1058F000E9008091F000877F8093F00078940E9407
:105900009F2C1092E9008091F00088608093F00055
:10591000CD2BCF70C093E900FF91EF91DF91CF9134
:10592000BF91AF919F918F917F916F915F914F91B7
:105930003F912F910F900FBE0F901F9018951F93BE
:10594000CF93DF93CDB7DEB7AA970FB6F894DEBF3B
:105950000FBECDBFE3E6F4E08091F100819324E037
:10596000EB36F207C9F70E94AF278091E80083FF6A
:105970002EC18091630490916404492F50E04A3015
:10598000510508F024C1FA01EC58FF4F0C94432E46
:10599000803821F0823809F01AC108C080915F0474
:1059A00090916004992389F082600FC08091670410
:1059B0008F70873008F00BC18093E9008091EB0075
:1059C00085FB882780F91092E9009091E800977F85
:1059D0009093E8008093F1001092F100D1C0282F3D
:1059E0002D7F09F0F4C0882319F0823061F0EFC0F8
:1059F00080916504813009F0EAC0933009F080E0BD
:105A0000809360042EC08091650481112AC080912A
:105A100067048F702FEF280F263008F0D8C08093CE
:105A2000E9002091EB0020FF1CC0933021F480910D
:105A3000EB00806214C09091EB0090619093EB00BA
:105A400021E030E0A90102C0440F551F8A95E2F71A
:105A50004093EA001092EA008091EB008860809306
:105A6000EB001092E9008091E800877F8093E800C6
:105A70000E94BC2AACC08111AAC0109165041F7796
:105A80008091E3008078812B8093E3008091E8008F
:105A9000877F8093E8000E94BC2A8091E80080FF05
:105AA000FCCF8091E30080688093E300111102C075
:105AB00082E001C083E08093620489C08058823014
:105AC00008F085C080916504909166048C3D53E098
:105AD000950779F583E08A838AE289834FB7F89442
