:100000000C94D7020C941E030C941E030C94D20380
:100010000C941E030C941E030C941E030C941E03DC
:100020000C941E030C941E030C94192B0C94EB2BB4
:100030000C94191F0C941E030C941E030C941E03A5
:100040000C941E030C941E030C941E030C941E03AC
:100050000C941E030C94661F0C941E030C941E0338
:100060000C941E030C941E030C941E030C941E038C
:100070000C941E030C941E030C941E030C941E037C
:100080000C941E030C941E030C941E030C941E036C
:100090000C941E030C941E030C941E030C941E035C
:1000A0000C941E030C941E030C941E03E507ED072D
:1000B0003D083D083D083D0831083D083D08F7076B
:1000C0000A0829082D0894139413A613A6139D1348
:1000D000A613A613A61394139413A213A613A61380
:1000E000A213E813E8131C141C1496156C1496152F
:1000F000961577141215251525158615961596153E
:100100008F15582C7F2C772D7F2C772DCB2CEE2C18
:10011000772D452D542D0357025717001500080061
:100120001A001400E0002C000A0009000700160065
:100130000400025800570500190006001B001D00AE
:10014000045705571C0018000C00120013002A0069
:100150004C000B000D000E000F003300280001576B
:1001600011001000360037003800010001000000C7
:10017000F9000000F0000000005C285D0000FA00BB
:10018000F300F100F200295D000000000000F5001E
:10019000F600F40000000000000000000000000075
:1001A0000000DE5C00005000510052004F000000D3
:1001B00000000000000000000000000000002B0212
:1001C00029021702150208021A021402E0022C0288
:1001D0000A02090207021602040201004A0205028D
:1001E000190206021B021D024902E2021C02180249
:1001F0000C02120213022A024C020B020D020E0222
:100200000F02330228024D02110210023602370299
:100210003802035702570A00090007001A001400A9
:10022000E0002C000C001800080012000400025826
:1002300000570500190006001B001D000457055754
:100240001C0018000C00120013002A004C000B00C8
:100250000D000E000F0033002800015711001000A0
:100260003600370038002B0229020A020902070271
:100270001A021402E0022C020C02180208021202F6
:100280000402E1028B020502190206021B021D0292
:100290004902E2021C0216021702150213022A0288
:1002A0004C020B020D020E020F02330228028A02D8
:1002B000110210023602370238022E5D01003E00A4
:1002C0003D003C003B003A00E0002C0043004200AF
:1002D000410040003F00E10000006A006900680042
:1002E00045004400230289021E001F002000210057
:1002F00022001E022E0223002400250026002700D3
:10030000380222022D0233022D003402380001008F
:100310002E5D48004700460001000100E0002C006F
:100320004B004A00490001000100E10000004E00BE
:100330004D004C000100010020022102250226028E
:10034000300232022F00000000003000320036027E
:1003500037023400000000002F0224021F0287022F
:100360008700000000000000000000000000000006
:10037000000000000000000000000000000000007D
:10038000000000000000000000000000010000006C
:10039000000000000000000000000000000000005D
:1003A000000000000000000000000000000000004D
:1003B000000000000000000000000000000000003D
:1003C000000000000000000000000000000000002D
:1003D000000000000000000000000000000000001D
:1003E000000001000000000000000000000000000C
:1003F00000000000000000000000000000000000FD
:1004000000000000000000000000040330000000B5
:1004100010034D0061006E00740061003400320072
:1004200000000A0378006300640030000000040349
:10043000090409029F00040100A032090400000120
:10044000030101000921110100012240000705817B
:100450000308000A0904010001030000000921113A
:10046000010001228A000705820320000A080B020E
:10047000020101000009040200000101000009243A
:100480000100010900010309040300020103000047
:100490000724010001410006240201010006240294
:1004A00002020009240301030102010009240302DE
:1004B00004010101000905040240000500000525B2
:1004C0000101010905830240000500000525010125
:1004D0000312011001000000086732000001000152
:1004E00002030105010902A10185020901A100051C
:1004F0000919012905150025019505750181029548
:1005000001750381010501093009311581257F95A8
:10051000027508810609381581257F9501750881C6
:1005200006050C0A38021581257F9501750881069C
:10053000C0C005010906A1018505050719E029E7E5
:10054000150025019508750181020507190029EF9D
:100550001500250195F0750181020508190129058D
:10056000950575019102950175039101C005010979
:1005700006A101050719E029E71500250195087571
:100580000181029501750881010507190029FF15F0
:100590000026FF0095067508810005081901290548
:1005A000950575019102950175039101C000112413
:1005B0001FBECFEFDAE0DEBFCDBF04B603FE27C01B
:1005C00080913A0490913B04A0913C04B0913D0489
:1005D0008730904BA740B04BD1F410923A04109260
:1005E0003B0410923C0410923D0414BE84B7877FF4
:1005F00084BF0FB6F894A8958091600088618093BD
:100600006000109260000FBEE0E0F8E3099512E090
:10061000A0E0B1E0E4E5FCE502C005900D92A23057
:10062000B107D9F724E0A2E0B2E001C01D92AA33DD
:10063000B207E1F70E9406280C94282E0C940000C3
:100640008EE14A9B02C08150E1F74A9BFECF08959C
:100650005A9880E28A95F1F75A9A0895FC012AE0A7
:100660002A95F1F790E020E080E031E0261779F05C
:1006700040E14A95F1F7880F4A9B02C081609327B9
:1006800000C0000040E14A95F1F72F5FEFCF20E175
:100690002A95F1F729B100C0000030E13A95F1F751
:1006A00022FB222720F992272081920F9083089520
:1006B000EF92FF920F931F93CF93DF931F92CDB7CB
:1006C000DEB719828C017C01E60EF11C0E151F05A8
:1006D00059F00E94200368E0CE0101960E942E038B
:1006E000F80181938F01F2CF81E09981911180E02F
:1006F0000F90DF91CF911F910F91FF90EF90089590
:10070000909304028093030260930202529A5A9AD1
:10071000089590930402809303026093020252981A
:100720005A9AEA9AE9E6F0E080818F7C8083089506
:10073000615091E001C0990F6A95EAF720E031E03D
:10074000992361F0492F482319F05A9A232701C0B1
:100750005A9840E24A95F1F79695F2CF222311F08C
:100760005A9A01C05A9880E28A95F1F75A980895EA
:10077000FF920F931F93CF93DF93EC018C01060F31
:10078000111DC017D10741F0F9900E94280368E0BD
:100790008F2D0E949803F5CFDF91CF911F910F917C
:1007A000FF9008951F920F920FB60F9211240F938E
:1007B0001F932F933F934F935F936F937F938F93E9
:1007C0009F93AF93BF93EF93FF93CF93DF931F92CA
:1007D000CDB7DEB719820E94200367E0CE010196F3
:1007E0000E942E03382F369536953695932F969581
:1007F0009570232F2570920F292F2370969596952B
:100800008770920F891348C08981811145C08091FA
:100810000202831708F440C080E18A95F1F75A9AE2
:10082000529AA2E0AA95F1F700C00091030210913C
:100830000402B8E03B9F000D111D11245A98F801E5
:100840006581662321F0868197810E94B8030E940A
:100850002803F0E1FA95F1F75A9852985A9A80E1F4
:100860008A95F1F7D80112966C911297662369F078
:1008700013968D919C9114970E945803D801ED9185
:10088000FC91811105C082E004C0D801ED91FC917A
:1008900088E080830E9420030F90DF91CF91FF9129
:1008A000EF91BF91AF919F918F917F916F915F91E8
:1008B0004F913F912F911F910F910F900FBE0F906D
:1008C0001F9018950F931F93CF93DF9320910202EF
:1008D00030E0281739070CF471C09C0193E0220F17
:1008E000331F9A95E1F7C0910302D0910402C20F21
:1008F000D31FF894529A5A9845E04A95F1F70000B0
:10090000982F969595708570890F982F937086957E
:100910008695890F8901082B0E94280384E08A9517
:10092000F1F700C067E0802F0E94980340E14A95EC
:10093000F1F752985A9A4A9902C000C0FCCF87E05A
:1009400090E04A9B0EC0019751F4529A5A9AE8815E
:10095000F98181E08083789481E090E031C000C02B
:10096000F0CF6D81662381F08E819F810E945803B4
:1009700081110AC0529A5A9AE881F98182E08083F3
:10098000789482E090E01CC00E94200380E28A9567
:10099000F1F75A98529A40E14A95F1F76A81662335
:1009A00021F08B819C810E94B8030E942803E8817A
:1009B000F9811082789480E090E002C084E090E0B9
:1009C000DF91CF911F910F910895CF93DF93ADEEFB
:1009D000B1E040EF51E061E070E08D91E82FE295E9
:1009E000EF70F0E021A18F70EB0102C0CC0FDD1F92
:1009F0008A95E2F7CE019C2F9095922391A392A124
:100A0000892B82A34A175B0741F7DF91CF910895A5
:100A100008950C9408050E94B5060E94E504A6EE10
:100A2000B1E041E050E08D91E82FE295EF70F0E009
:100A300021A18F70BA0102C0660F771F8A95E2F775
:100A4000CB01962F9095922391A392A1892B82A3FB
:100A500071E0AD3EB70739F7209A559A289A5D9A0A
:100A6000EBE0F2E0A5E0B2E011921D9282E0E1310C
:100A7000F807D1F70C94E9087F928F929F92AF927A
:100A8000BF92CF92DF92EF92FF920F931F93CF937B
:100A9000DF9380910101811103C0C3E0D0E002C067
:100AA000C0E0D0E08E010B5F1D4F8DEEE82E81E09F
:100AB000F82E90EFA92E91E0B92E68018824839436
:100AC000912C35E0732EAE14BF0409F44AC0D7014F
:100AD0008D917D01E82FE295EF70F0E021A18F70FC
:100AE000A40102C0440F551F8A95E2F7CA01922F54
:100AF000982B91A392A18095892382A350EA5A95BD
:100B0000F1F7E6EEF1E020E040E050E03191A32F74
:100B1000A295AF70B0E090968C9190E03F7002C0CB
:100B2000959587953A95E2F780FD07C0C401042E9C
:100B300001C0880F0A94EAF702C080E090E0282BF9
:100B40004F5F5F4F4730510509F7D8018C918217ED
:100B500019F02C93709200010E94E5040F5F1F4F63
:100B6000B2CF80910001882321F181508093000150
:100B7000811119C0FE01E55FFD4FD6018C91808384
:100B8000CE010196FC01E55FFD4FDC01AB5FBD4F7F
:100B90008C9180832296FE01E55FFD4FCB5FDD4F98
:100BA0008881808306C0EFE9FFE03197F1F700C04C
:100BB000000081E0DF91CF911F910F91FF90EF90A6
:100BC000DF90CF90BF90AF909F908F907F900895CF
:100BD000CF93DF9320910101211103C0C0E0D0E049
:100BE00002C0C3E0D0E00E94D006009721F0029737
:100BF00089F428980FC0289AC55FDD4F80911B02A9
:100C000090911C02A0911D0288839983AA8380E0A1
:100C100090E002C081E090E0DF91CF9108950E94C2
:100C20003C0580910101811103C0E3E0F0E002C0C6
:100C3000E0E0F0E0E55FFD4F20E030E080E0D9014A
:100C4000A55EBD4F4C919191491381E09C932F5F1C
:100C50003F4F2330310599F790911502890F80930A
:100C600015020895CF93DF930E9498068823E1F13F
:100C70000E943C0580910101811103C0C3E0D0E0D6
:100C800002C0C0E0D0E0C55FDD4F43E050E0BE01F0
:100C900088E192E00E94D92D288139814A812093F0
:100CA00018023093190240931A020E94E805892B1A
:100CB000B9F05D98809111028F5F809311028630A8
:100CC00050F180910101811103C0E0E0F0E002C029
:100CD000E3E0F0E0E55FFD4F1082118212821BC05D
:100CE0005D9A1092110217C00E940F0680910101B7
:100CF000811103C080E090E002C083E090E0FC013D
:100D0000E55FFD4F209118023091190240911A02BF
:100D10002083318342830E94F10881E0DF91CF91EB
:100D20000895E82FF0E0E55FFD4F80810895089574
:100D300080911202811112C08091D800806180934D
:100D4000D8008AE18A95F1F700C08091D90080FD32
:100D500002C082E001C081E08093120281E09091A4
:100D60001202913009F080E008950E949806809365
:100D700001010E949806882319F00E94C40602C04F
:100D80000E94CA067894089563E070E082E091E0E2
:100D90000C94800363E070E082E091E00C9489039E
:100DA0000F931F93CF93DF938C0190911B01809140
:100DB0001A01981761F082E090E00E946204EC0151
:100DC000892B39F480911A0180931B0102C0C0E085
:100DD000D0E0012B49F48091130290911402892BE9
:100DE00019F480E090E002C081E090E00E9462048B
:100DF000892B49F48091150280931A0110921402F4
:100E00001092130206C081E090E090931402809348
:100E10001302CE01DF91CF911F910F9108950E948F
:100E2000DE1180931E020C9441080C94D111FC0138
:100E30008081813041F4918591110AC09285992376
:100E400039F082E00895823011F085E0089584E061
:100E500008950F931F93CF93DF938B01EA010E94B4
:100E60001707823079F08430C1F0813071F586E067
:100E70008C9FF0018D9FF00D1124E056FE4F808174
:100E8000918115C086E08C9FF0018D9FF00D11249B
:100E9000E056FE4F828193810AC086E08C9FF0016C
:100EA0008D9FF00D1124E056FE4F84819581012B1A
:100EB00031F0DF91CF911F910F910C946F08DF916A
:100EC000CF911F910F910C948508DF91CF911F91C5
:100ED0000F91089540E050E061E070E00C94290724
:100EE00040E050E060E070E00C94290741E050E001
:100EF00061E070E00C94290741E050E060E070E0B0
:100F00000C94290742E050E061E070E00C9429075E
:100F100042E050E060E070E00C94290743E050E0CC
:100F200061E070E00C94290743E050E060E070E07D
:100F30000C94290744E050E061E070E00C9429072C
:100F400044E050E060E070E00C94290745E050E098
:100F500061E070E00C94290745E050E060E070E04B
:100F60000C942907CF93DF93EC010E946B1DBE0107
:100F700080E090E0DF91CF910C94AE1ACF93DF9395
:100F8000D62FC42F0E940E1B882351F08D2F0E9454
:100F90000E1B882329F08C2FDF91CF910C942E1BF0
:100FA0008C2FDF91CF910C944F1B88EC90E008952B
:100FB000CF9388529D458D30910508F05EC0DB01CE
:100FC0008A5A9F4FFC010C94D32D1296CC91CC23BE
:100FD00009F454C081E090E007C01296CC91CC2374
:100FE00009F44CC088E090E00E94B20741C012961C
:100FF000CC91CC2349F080911F02811103C081E084
:1010000080931F0285E012C010921F0285E00E94AB
:101010004F1B19C01296CC91CC2381F080911F02F6
:10102000811103C081E080931F0286E00E942E1B85
:1010300041E066E085E00E94BE071AC086E00E949B
:101040004F1B10921F0241E066E085E00E94BE0740
:1010500015C01296CC9187E007C01296CC9188E01B
:1010600003C01296CC9181E0CC2321F00E942E1B6C
:10107000C0E004C00E944F1B01C0C1E08C2FCF9183
:10108000089508959C013A9521153F4138F5DC01FA
:10109000AA27B270AC01442754709C0122273870F3
:1010A00094FF0FC090FF02C080E101C080E0AB2B35
:1010B00009F08062452B09F08064232B69F0806879
:1010C0000BC0892F8170AB2B09F08260452B09F092
:1010D0008460232B09F08860FB0109940895CF9365
:1010E000DF93EC01805E9109089710F0209719F4C6
:1010F00064E573E102C062E673E1CE010E9442083A
:101100008C2FDF91CF910C94D212CF93DF93EC010F
:101110000E940D13CE01805E9109089710F0209770
:1011200019F46BE573E102C069E673E1CE01DF916A
:10113000CF910C94420881E008950C94D80708954B
:101140000C949F081F93CF93DF9300D000D01F9281
:10115000CDB7DEB749835A836B8330917F02898193
:101160009A81311114C0662359F0222349F00E945C
:10117000231C182F682F89819A810E94CC1B03C0E1
:101180000E94F71B182F69817A81812F04C00E9469
:10119000231C69817A810F900F900F900F900F9010
:1011A000DF91CF911F910C946609FC01262F40819D
:1011B00051816281738184810C94A208CF93DF9363
:1011C000EC0160E00E94D508BE01DF91CF910C9444
:1011D000A0080E94581D811102C00E94FD1D0C94A0
:1011E0000F070E940D110C94090508950C94F50841
:1011F00081E008950C94F808CF93C82F0E94F60858
:101200008C2F0E94FA08CF91089508950E948213AE
:101210000E9405092FEF84E39CE02150804090401C
:10122000E1F700C000000C948C1F0F931F93CF9325
:10123000DF93EC0161E00E94D5088C01BE010E94A1
:101240006A10BE01C8010E949D088823A9F1BE0151
:10125000C8010E94860B882379F1BE01C8010E9453
:10126000B110882349F1BE01C8010E945A0E88239B
:1012700019F1BE01C8010E94AC0E8823E9F0BE013D
:10128000C8010E94D70F8823B9F08A81882369F0AA
:1012900001158CE5180731F00E3D1C4531F40E9414
:1012A000FD1D0AC00E94060907C0CE01DF91CF9143
:1012B0001F910F910C949B0880E0DF91CF911F91BB
:1012C0000F91089580E090E0089508952AE2829FAA
:1012D000C0011124FC0127E0729FE00DF11D1124D3
:1012E000E60FF11DEE0FFF1FEA5EFE4F8591949110
:1012F0000895880F991FFC01E65FFB4F859194913B
:101300000895CF93DF930E9466090E94830AEC013F
:10131000811521E59207B8F5811540E5940708F09D
:101320008BC08F3F910509F0E0F4803F910508F0F4
:101330006EC0803E910580F4803C910508F069C044
:101340008130910509F4DBC008F4D7C00497813AD5
:10135000910508F4D4C0D1C0883E910508F4CFC0EF
:10136000CCC0C11580E3D80740F4C11520E2D207F4
:1013700008F4C5C0CE019F704EC0C11540E4D4072B
:1013800008F057C04CC0C11585E5D807A0F4C115B9
:1013900024E5D20708F097C0C11543E5D40708F04B
:1013A0007CC0C11582E5D80708F061C0DC2FCC27CE
:1013B000C16FD06AA4C0C11529E5D207A0F4C11538
:1013C00048E5D40708F084C0C11586E5D80708F0C1
:1013D00094C08C2F0E94170B8F71C82FD0E0DC2F88
:1013E000CC27D0628CC0C1152AE5D20708F475C09D
:1013F000CE0190568115904208F07FC08D2F8F71DD
:101400000E94170BDD27D0628F71D82B78C0D06572
:1014100076C0805C91090E947909EC0170C0CE0110
:101420009927D3FF03C0EC01D86C69C0EC01D06CE4
:1014300066C0DF70D06A63C074E0969587957A9530
:10144000E1F783709C2F937021E030E002C0220FFF
:10145000331F9A95E2F73C68382BCF70C695C69536
:1014600080E2C89FE0011124C22BD32B48C0CE01DB
:101470008370992721E030E002C0220F331F8A9544
:10148000E2F78C2F8695869540E2849FC001112457
:10149000E901C82BD92BDC6832C0CE0183709927B3
:1014A00021E030E002C0220F331F8A95E2F78C2F33
:1014B0008695869540E2849FC0011124E901C82BDE
:1014C000D92BDA681CC0DC2FCC27C46FD06A17C0B8
:1014D000DC2FCC27C06FD06A12C08C2F8F700E9477
:1014E000170B94E0D695C7959A95E1F7CF70D0E0A9
:1014F000DC2FCC27D069C82B02C0C0E0D0E0CE01E1
:10150000DF91CF9108958238910569F1B0F481336C
:10151000910509F46DC048F48932910509F463C05E
:101520008A32910509F469C008958533910509F45B
:1015300055C089339105B9F00895833E910569F14D
:1015400038F4803E9105B1F0823E910509F108958D
:10155000863E9105A9F1873E9105B9F1843E91053A
:1015600009F064C023C020913E0320FD4FC021FD3F
:101570004DC0089580913E0380FD44C080913F039B
:1015800080FF44C080913E0384FD42C083EE4DC085
:1015900080913E0382FF38C0F5CF80913E0382FDEB
:1015A00033C080913F0380FD31C0ECCF80913F0379
:1015B00081FF32C080913E0384FD2AC087EE35C092
:1015C00080913E0383FF26C0F5CF80913E0383FDCB
:1015D00021C080913F0381FD1FC0ECCF80913E036D
:1015E00085FD1CC01DC080913E0385FD19C016C03D
:1015F00080913E0386FD16C017C080913E0386FD94
:1016000013C010C089E311C082EE0FC080EE0DC080
:1016100080E00BC086EE09C084EE07C089E205C0F9
:1016200085E303C08AE201C081E390E008959091D0
:101630003E0392FF0DC0282F2871283019F4877FB0
:10164000846006C0282F2471243011F48B7F8860B9
:1016500093FF0DC0282F2871283119F4877E8461EB
:1016600006C0282F2471243111F48B7E88612091CB
:101670003F0320FF0DC0382F3871383019F4877FB1
:10168000816006C0382F3171313011F48E7F88604F
:1016900021FF0DC0282F2871283119F4877E816120
:1016A00006C0282F2171213111F48E7E886194FDAE
:1016B000877E089584E08093360389E08093370322
:1016C00080913803807F886080933803E4E2F2E001
:1016D0008FEF819392E0EC36F907D9F7109223024D
:1016E00010922202109221021092200208959091ED
:1016F0003603292F2F7095959595959595959F5221
:101700003CE0239F900D1124890F0895EF92FF92E2
:101710000F931F93CF93DF93FB018E3A2CE5920733
:1017200008F044C08E393CE5930708F040C1803989
:101730002CE59207F0F483383CE5930708F0D1C01C
:1017400081382CE5920758F487373CE5930708F079
:101750009FC08F322CE5920708F065C0C9C181385F
:101760003CE5930709F4A1C082389C4509F4A7C061
:10177000BFC18C393CE5930778F482392CE5920798
:1017800008F0F1C080393CE5930709F4B3C0813912
:101790009C4509F4C2C0ACC18C393CE5930709F4FF
:1017A000ECC08D399C4509F4F7C0A2C1843B3CE5EF
:1017B000930709F43CC1D8F4803B3CE5930709F456
:1017C00019C150F48E3A3CE5930709F4FBC08F3AF7
:1017D0009C4509F401C18CC1609137032281823B91
:1017E0003CE5930709F417C108F40FC11AC1873B00
:1017F0002CE5920709F434C150F4853B2CE592079F
:1018000009F415C1863B9C4509F421C171C1893B8E
:101810002CE5920709F44DC108F438C18A3B9C4578
:1018200009F458C165C120913703E22EE2943FE0EC
:10183000E322322F3F702CE0F22E239FF00C112474
:10184000C28101ED080F10E0CC2391F0E801CC5DDE
:10185000DD4F28812F3F39F50E94770B182F2F2D50
:10186000482F6E2D80E493E00E94AD2218831BC0A8
:101870000C5D1D4FF80140814F3F31F02F2D6E2D33
:1018800080E493E00E94BD228FEFF801808331C194
:101890002281222341F087578F7090913603907FE9
:1018A000892B80933603C0E024C182818823D9F339
:1018B00020913603822F8F70B1F3815F0DC082813A
:1018C000882389F320913603822F8F70482F50E0B0
:1018D0004930510544F78F5F982F9F70822F807F8A
:1018E000DFCF22812223F9F289588295807F90915F
:1018F000360337C082818823B1F220913603822FCC
:1019000085958595859585958B3F6CF2815F982FA0
:101910009295907F822F8F70C3CF8281882319F296
:1019200020913603822F85958595859585958630FE
:101930000CF0B9CF91E0980F9295907F9595959581
:1019400095959595392F3295307F2F70232B2093C5
:10195000360318160CF0A7CF97FFA5CF8295807F8E
:10196000922F9F709DCF2281222309F49CCF825910
:101970008F7090913703907F39C08281882309F45A
:1019800092CF20913703822F8F7009F48CCF815F23
:10199000982F9F70822F09C08281882309F483CFFA
:1019A0008091370391E0980F9F70807F1FC0228144
:1019B000222309F478CF8E598295807F9091370346
:1019C0009F7014C08281882309F46DCF8091370302
:1019D000982F907F905109C08281882309F463CFAA
:1019E00080913703982F907F905F8F70892B809321
:1019F000370359CF8281882309F455CF609137038B
:101A000062956F7020E04BE71DC021112FE76295B2
:101A10006F7040E417C021112FE762956F7041E4A9
:101A200011C021112FE762956F7042E40BC08281D3
:101A3000811102C020E001C02FE760913703629559
:101A40006F7043E480E493E00E949D222CCF82815A
:101A5000811102C08FEF01C081E08093220223CF69
:101A60008281882309F41FCF80913803282F2F709B
:101A700091E0920F9F70807F892B80933803982F7D
:101A80009F7009F010CF807F822B10C08281882345
:101A900009F409CF20913803822F8F7009F403CF06
:101AA000815F982F9F70822F807F892B80933803CE
:101AB000FACE8281882339F06091370362956F7086
:101AC00040E050EE10C06091370362956F7040E0C7
:101AD00050E009C082818823B1F360913703629599
:101AE0006F704FEF5FE180E493E00E94CD22DBCE88
:101AF000C1E08C2FDF91CF911F910F91FF90EF905C
:101B0000089580E493E00E94E8248091200290915F
:101B100021020E94571F209138032F7030E0821756
:101B2000930778F10E944B1F90932102809320022B
:101B300080912202882329F16091370362956F70AA
:101B40002091230241E080E493E00E949D22909145
:101B500022028091230297FF0FC0282F30E0692FC7
:101B6000772761950CF47095261737072CF410929F
:101B70002302109222020895890F87FD8FE7809338
:101B800023020895AF92BF92CF92DF92EF92FF921D
:101B90000F931F93CF93DF937C015B01C42FD22F50
:101BA000FC0182818823F9F040936E020E944B1F52
:101BB00090936D0280936C0280E28C0F883008F065
:101BC0006EC0C77081E001C0880FCA95EAF7DF9147
:101BD000CF911F910F91FF90EF90DF90CF90BF902A
:101BE000AF900C94541380916E02481335C08091CD
:101BF0006C0290916D020E94571F6C01B701C501E4
:101C00000E94D507C816D90638F510E21D0FCD176A
:101C1000B9F080E28C0F883040F4C77081E001C0D9
:101C2000880FCA95EAF70E945B13183058F581E0D7
:101C30009D2F977001C0880F9A95EAF70E94541360
:101C4000802F0E944113183050F5D77081E001C0F9
:101C5000880FDA95EAF70AC080E28C0F8830F8F432
:101C6000C77081E001C0880FCA95EAF7DF91CF9174
:101C70001F910F91FF90EF90DF90CF90BF90AF90AA
:101C80000C945B13802FDF91CF911F910F91FF90E8
:101C9000EF90DF90CF90BF90AF900C944113DF9105
:101CA000CF911F910F91FF90EF90DF90CF90BF9059
:101CB000AF9008950F939C01CB01233F4CE534076F
:101CC00031F188F4283DFCE53F07D9F0293D4CE58A
:101CD000340779F1273D3C45A9F506E221EE41EEB6
:101CE00067ED7CE52BC0253FFCE53F07E1F0A8F060
:101CF000263F3C4539F507E225EE46EE66EF7CE5EA
:101D00001DC007E225EE45EE68ED7CE517C006E252
:101D100021EE40EE63EF7CE511C007E225EE44EED4
:101D200064EF7CE50BC006E221EE42EE65EF7CE558
:101D300005C008E221E045EE69ED7CE50E94C20D98
:101D400080E008C0FC018281882319F010926E02A5
:101D500001C081E00F910895CF93DF93EC01FB0167
:101D60008281882309F41FC1C230FCE5DF0708F433
:101D70001BC1C6319CE5D90738F09E012A5F3C455E
:101D80002930310508F010C10E94701D90933F0367
:101D900080933E03C031ECE5DE0709F4C3C008F0D0
:101DA00041C0C8308CE5D80709F49AC0F0F4C430BB
:101DB000ECE5DE0709F487C068F4C2308CE5D8078B
:101DC00009F477C0C330DC4509F0E3C080913E03DD
:101DD000826076C0C630ECE5DE0709F46EC008F01C
:101DE0007BC080913E0388606BC0CC308CE5D80707
:101DF00009F485C068F4CA30ECE5DE0709F474C064
:101E000008F079C00E94821380913E03806858C018
:101E1000CE308CE5D80709F476C008F07FC08091F9
:101E20003E038BC0CB3FECE5DE0709F44FC018F54D
:101E3000C3318CE5D80709F47DC078F4C131ECE5F5
:101E4000DE0709F473C0C231DC4509F0A2C00E946C
:101E5000821380913E038F7733C0C5318CE5D8075C
:101E600009F472C008F486C0CA3FDC4509F091C08D
:101E700080913F033EC0CF3FFCE5DF0709F45FC020
:101E800058F4CD3F9CE5D90709F444C008F43FC09D
:101E900080913F0382602DC0C130FDE5DF0709F46A
:101EA00075C008F45DC0C230DD4509F072C080E045
:101EB0006EC080913E03816003C080913E038061CB
:101EC00080933E0366C080913E0311C080913F0322
:101ED000826080933F035DC080913E038062F0CFBB
:101EE00080913E038064ECCF80913E0388608460E3
:101EF000E7CF8160EECF80913E038E7FE1CF80916E
:101F00003E038D7FDDCF80913E03877FD9CF8091C7
:101F10003F0318C080913F038D7FDBCF80913E034C
:101F20008F7ECECF80913E038F7DCACF80913E03BE
:101F30008F7BC6CF80913E03877F8B7FC1CF8091FF
:101F40003F038D7F8E7FC5CF80913E0382FB22278A
:101F500020F991E0922790FB82F990FB83F9B0CFB2
:101F600080913F03982F909591708E7F892B90FBE5
:101F700081F9AFCF0E94821380913E0387FB222715
:101F800020F991E0922790FB87F99ACF81E00E9497
:101F9000FF1D80913E0390913F030E94811D0E948E
:101FA000821380E001C081E0DF91CF910895CF934B
:101FB000DF9386319C4541F5EB010E94A41C982FCC
:101FC0008A812091C5013091C601882379F09A7ADF
:101FD00081E009F480E080936F02911102C069E210
:101FE00001C065E3C9010E949A1E0AC080916F0278
:101FF000811102C069E201C065E3C9010E94A51E0A
:102000000E94F51C80E001C081E0DF91CF9108952E
:10201000CF93DF93EC0181E0898B8F810E94A71C15
:1020200088850E94BA1C0E94F51CEA81FB81CE01C2
:102030000696309729F06C897D89DF91CF910994BC
:10204000DF91CF910895EF92FF920F931F93CF935B
:10205000DF93FC012285211136C0EC01E380F4807E
:10206000F7E5FF1A26E12E9DC0012F9D900D11244A
:10207000DC01A45EBE4F1496ED91FC9115978E5D28
:102080009E4F309729F054966D917C915597099504
:1020900086E18E9D80018F9D100D1124045E1E4FE0
:1020A000F80187810E94AD1CF80180850E94C01C48
:1020B0000E94F51C188219861B861E821D821092B2
:1020C000710210927002DF91CF911F910F91FF90DA
:1020D000EF900895DF92EF92FF920F931F93CF93AB
:1020E000DF93FB0122812223A1F12091C4012F3F24
:1020F00081F18C01CCE1D1E0E12CF12CDD24D394F1
:102100008091C401082E000C990B8E159F050CF1CF
:102110008E818823C9F089859A858017910739F4C3
:1021200080917002909171020817190769F0DF869B
:102130001C870B878989811103C0CE010E9408107A
:10214000CE0106960E942310FFEFEF1AFF0A669653
:10215000D7CFDF91CF911F910F91FF90EF90DF903C
:102160000895EF92FF920F931F93CF93DF939C01FB
:1021700037552F3F310511F008F047C04091C40199
:10218000042E000C550B4217530714F42093C4017E
:10219000FB017C01828196E1929F8001939F100D4B
:1021A0001124E801C45EDE4F888B92818E819923D1
:1021B00011F1FA86E9868F5F8E830E944B1F9E87FE
:1021C0008D870E94DA1C8F830E94A41C88870E943E
:1021D000B71C9885892B8887E881F981C8018E5DB5
:1021E0009E4F309719F06C897D890995F0927102A4
:1021F000E09270020AC0882341F08989882329F07F
:10220000C8018E5D9E4F0E94231081E0DF91CF9127
:102210001F910F91FF90EF900895CF92DF92EF9270
:10222000FF920F931F93CF93DF938091C4018F3F51
:1022300009F442C0F12C86E1E82E0F2D10E08091C8
:10224000C401082E000C990B80179107ACF1E09E99
:10225000F001E19EF00D1124E45EFE4FC288D388A8
:10226000C114D10439F460E070E0818592850E9448
:10227000D5076C01E09EE001E19ED00D1124C45E03
:10228000DE4F8E818823B1F08D859E850E94571F79
:10229000C816D90678F48989811103C0CE010E943D
:1022A0000810E09EC001E19E900D11248E5D9E4FAE
:1022B0000E942310F394C1CFDF91CF911F910F9112
:1022C000FF90EF90DF90CF900895909377028093E6
:1022D00076020895E0917602F0917702309721F02E
:1022E0000190F081E02D099480E00895E09176025C
:1022F000F0917702309799F02091E501222359F06F
:1023000020913E0327FF07C0DC012C9111962C93EE
:10231000119725E02C930280F381E02D0994089514
:10232000E0917602F0917702309739F022E0DC01FB
:102330002C930480F581E02D099408952091740276
:10234000309175022817390771F0909375028093C8
:102350007402E0917602F0917702309721F00680C6
:10236000F781E02D09940895209172023091730253
:102370002817390771F09093730280937202E091ED
:102380007602F0917702309721F00084F185E02DFC
:102390000994089585B7806885BF85B7806885BF33
:1023A000089508950C94D1110C94D2110C94D1116C
:1023B0000E94CA110E94D6110C94D41181E0089594
:1023C0000C94DE110E94421F0E940B050E949D1F6B
:1023D0000C941507AF92BF92CF92DF92EF92FF92CB
:1023E0000F931F93CF93DF93CDB7DEB72A970FB626
:1023F000F894DEBF0FBECDBF0E9432060E94E011EE
:10240000811111C08FEF89838A831B820E944B1F29
:102410008160782F9D838C8349815A816B818D8166
:102420000E94841240C089E7A82E82E0B82E00E006
:1024300010E0C02E802F0E949106E82EF501D19069
:102440005F01D82631F40F5F1F4F0630110589F761
:10245000D9CF8091050381FD0E94970680E0FF247B
:10246000F3949D2D9F21D1F08E83CF82EF2081E0C8
:1024700009F480E088870E944B1F8160782F9A873B
:1024800089874E815F8168858A850E948412F80160
:10249000E758FD4F8081F826F08205C08F5FFF0C62
:1024A0008730F9F6D0CF0E944C210E94810D0E9406
:1024B0006A11909178028917B1F00E946A11809395
:1024C00078022A960FB6F894DEBF0FBECDBFDF911B
:1024D000CF911F910F91FF90EF90DF90CF90BF9021
:1024E000AF900C94FC082A960FB6F894DEBF0FBE8E
:1024F000CDBFDF91CF911F910F91FF90EF90DF90B3
:10250000CF90BF90AF900895CF93DF93CDB7DEB754
:102510002B970FB6F894DEBF0FBECDBF942F4F831D
:10252000252F588769877A878B874A855B85452B56
:1025300031F02F3F31F481E09F3F19F403C081E077
:1025400001C080E080FD09C08091800290918102ED
:1025500001969093810280938002DE01119686E0BD
:10256000FD0111928A95E9F785E0FE013796019009
:102570000D928A95E1F749815A816B817C818D8129
:102580009E810E9471192B960FB6F894DEBF0FBE84
:10259000CDBFDF91CF910895FC01808191810E9490
:1025A000651C0895CF938823B1F1C82F8CEF8C0F51
:1025B000813AD0F46C2F8091C5019091C6010E94A0
:1025C0001A1E882349F06C2F8091C5019091C60195
:1025D0000E94A51E0E94F51C6C2F8091C501909150
:1025E000C6010E949A1E0CC080E28C0F883058F4FD
:1025F000C77081E001C0880FCA95EAF70E94A71C46
:10260000CF910C94F51CC03F30F08C2F0E944120DC
:10261000CF910C942E21CF910895882389F19CEFBE
:10262000980F913A40F4682F8091C5019091C601AE
:102630000E94A51E0DC090E2980F983058F4877044
:1026400091E001C0990F8A95EAF7892F0E94AD1C8D
:102650000C94F51C9BE5980F933020F480E090E0FB
:102660000C949E1198E5980F973120F480E090E04B
:102670000C94B411803F20F00E94A9200C942E21CC
:102680000895CF93C82F0E94D212C93349F42FEF77
:1026900087EE93E0215080409040E1F700C00000B9
:1026A0008C2FCF910C940D13882321F00E94A71C2E
:1026B0000C94F51C0895882321F00E94AD1C0C9405
:1026C000F51C0895882321F00E94BA1C0C94F51C77
:1026D0000895882321F00E94C01C0C94F51C0895D5
:1026E0000E94C71C0E94D71C0E94F51C0E945F22FA
:1026F0000C942E218091C5019091C6010E94B01EBC
:102700000C9470130E94B41C0C947A13E92FE29578
:10271000EF704E2F50E0FA013297EE30F105B0F431
:10272000ED59FF4F0C94D32D803F91F018F4883E63
:1027300068F40EC0843F51F40BC0883E48F0813FDE
:1027400029F406C093FB882780F9089580E0089556
:1027500081E008950E94651C0E94861308958F925F
:102760009F92AF92BF92CF92DF92EF92FF920F9320
:102770001F93CF93DF936C01EB01FC011581129540
:102780001F70028101110E94C71C0E949D1C88239A
:1027900099F0002389F08D2F807F803421F080E232
:1027A0008C0F883048F082E00E943F1D0E949D1CE3
:1027B00091E0E82EE92601C0E12CBD2EB2942FE075
:1027C000B2228B2D90E0FC01EF58FF4F0C94D32DDB
:1027D0009D2F9F708D2F807FF92E19F0F29490EF2E
:1027E000F922002399F0FF2009F47BC180E28C0FCD
:1027F000883010F0C11104C08F2D0E94A71C03C0A7
:102800008F2D0E94BA1C0E94F51C6BC18C2F0E9458
:102810000D13FF2009F48AC180E28C0F883010F07C
:10282000C11104C08F2D0E94AD1C03C08F2D0E94CA
:10283000C01C0E94F51C7AC19D2F9F708D2F807F38
:10284000F92E803219F0F29480EFF822CC2319F09F
:10285000C130C9F022C0002371F0112341F01130C2
:1028600031F40E94DA1C8F290E94E21C5FC10E9491
:10287000DA1C8F291DC0112319F0113009F456C13B
:102880000E94EB1C25C0002321F0163008F04EC139
:102890000EC0153008F04AC11BC0002361F011239F
:1028A00031F0F601858180FF1CC18F7085838F2DEB
:1028B0000E9454133BC1112359F0C93309F022C1BE
:1028C000FFEF27EE83E0F15020408040E1F718C190
:1028D0008F2D0E945B132AC18C2F002319F00E94B8
:1028E000412002C00E94A9200E942E2127C18D2FC5
:1028F000837009F048C001111DC12C2F2295269527
:102900002770220F220F6C2F6F70862F90E0A0E0AF
:10291000B0E0022E04C0880F991FAA1FBB1F0A94A3
:10292000D2F7C4FF10C04FE050E060E070E004C098
:10293000440F551F661F771F2A95D2F74095509573
:102940006095709503C040E050E0BA012D2F2695A8
:10295000269523704A015B01882A992AAA2ABB2A54
:10296000C501B401223049F058F4213019F00E9419
:10297000C21AE0C00E94B01ADDC00E94D41ADAC0A8
:102980000E94AE1AD7C0002319F08D2F817001C0AC
:102990008695882309F4CEC02C2F22952695277082
:1029A000220F220F6C2F6F70862F90E0A0E0B0E016
:1029B000022E04C0880F991FAA1FBB1F0A94D2F7CA
:1029C000C4FF10C04FE050E060E070E004C0440F6E
:1029D000551F661F771F2A95D2F740955095609531
:1029E000709503C040E050E0BA012D2F2695269542
:1029F00023704A015B01882A992AAA2ABB2AC501A9
:102A0000B401223049F058F4213019F00E94A71B7C
:102A100091C00E94951B8EC00E94B91B8BC00E9462
:102A2000E81A88C02D2F2F70F22E002339F0822F44
:102A30000E942E1B8C2F0E9454137CC08C2F0E944E
:102A40005B138F2D0E944F1B75C0C23F01F128F40C
:102A5000C03F41F0C13FA1F040C0C33FF9F0C43FC7
:102A600039F13BC0002341F0153008F05FC08D2FD5
:102A70008F710E94741B5AC0163008F057C0F7CFF0
:102A8000002339F08D2F8F710E942E1B4FC0002321
:102A9000C9F38D2F8F710E944F1B48C0002329F06E
:102AA0008D2F8F710E94191B41C00E94F41A3EC0E5
:102AB000002351F08D2F8F71F82E0E942E1B63E0A2
:102AC0008F2D0E942A1D32C081E00E943F1D1230CE
:102AD00068F182E00E943F1D29C0002331F01123DC
:102AE00089F28C2F0E94D21221C0112391F2C93396
:102AF00049F49FEFE7EEF3E09150E040F040E1F75A
:102B000000C000008C2F0E940D1310C04D2F4F707D
:102B10006C2FC6010E9462090E941F1A0FC04D2F20
:102B20004F706C2FC6010E94650908C088EF8B0D9D
:102B3000843020F40E946A110E94FC08CE010E9499
:102B40008613811105C0109281021092800211C07B
:102B5000002319F01111F7CF0CC01111F4CF80919F
:102B6000800290918102029771F78C2F0E9441138D
:102B7000EACFEE20E9F00E94991C80FD19C0F60111
:102B800012820E94931C0E942E1BC6010E94FD15FA
:102B90000E94931CDF91CF911F910F91FF90EF90B6
:102BA000DF90CF90BF90AF909F908F900C944F1B71
:102BB000DF91CF911F910F91FF90EF90DF90CF9019
:102BC000BF90AF909F908F9008950F931F93CF93D6
:102BD000DF93EC01688179818A810E94701C8C01ED
:102BE0000E94CB1B0E949C1AB801CE010E94AF1319
:102BF000DF91CF911F910F910895CF93DF93EC0157
:102C0000988189812B813C81232B31F08F3F31F4D6
:102C100081E09F3F19F403C081E001C080E080FDA6
:102C200019C0CE010E94150981110CC00E949D1C83
:102C3000882381F08A81882369F082E0DF91CF9137
:102C40000C943F1DCE010E94E515CE01DF91CF917E
:102C50000C94DE08DF91CF910895CF93DF9300D0DD
:102C600000D01F92CDB7DEB70F900F900F900F904E
:102C70000F90DF91CF910895CF93DF9300D000D0D4
:102C800000D0CDB7DEB726960FB6F894DEBF0FBEE4
:102C9000CDBFDF91CF9108951F93CF93DF93C09164
:102CA000820216E080918302C81799F0D0E01C9F41
:102CB000F0011D9FF00D1124EC57FD4F4081518113
:102CC00062817381848195810E943C162196C77030
:102CD000E9CFDF91CF911F9108954091B4025091B7
:102CE000B5026091B6027091B7028091B8029091DE
:102CF000B9020C943C16209182029091830256E016
:102D00002917A9F030E0529FF001539FF00D1124D4
:102D1000EC57FD4F7181761306C07081781303C0A4
:102D20007281741306C02F5F3F4F2770E9CF80E098
:102D3000089581E00895DF92EF92FF920F931F9321
:102D4000CF93DF938091B90282958F7009F06BC0A9
:102D50008091B602882309F466C0C091820286E0A1
:102D6000D82E80918302C81709F45DC09091B402F7
:102D70004091B5022091B7023091B802211531057A
:102D800031F04F3F31F481E09F3F19F403C081E0FF
:102D900001C080E0D0E080FD43C0DC9E8001DD9E6C
:102DA000100D1124F801EC57FD4F8181841338C0B8
:102DB0008081891335C08281811132C0E380F48023
:102DC000E21AF30A20E04091B4025091B5026091FA
:102DD000B6027091B7028091B8020E94A20864EB1B
:102DE00072E00E94D507E816F906D0F48091B90286
:102DF0008F7080618093B902F801E757FD4F8081A1
:102E00008F708061808384EB92E00E94FD15DF91DA
:102E1000CF911F910F91FF90EF90DF900C944C1683
:102E20002196C7709ECFDF91CF911F910F91FF9098
:102E3000EF90DF9008956F927F928F929F92AF9262
:102E4000BF92CF92DF92EF92FF920F931F93CF9397
:102E5000DF93CDB7DEB761970FB6F894DEBF0FBE34
:102E6000CDBF7C0185E0F701DE011D9601900D923A
:102E70008A95E1F7D7017C9011960C9111971296E3
:102E80006C909091B4028091B5022091B70230917C
:102E9000B8022115310531F08F3F31F481E09F3FB9
:102EA00019F403C081E001C080E080FDE7C1F701B3
:102EB000C380D48084EBA82E82E0B82E1091B60295
:102EC0004601821A930A20E04091B4025091B50263
:102ED000112309F47FC1612F7091B7028091B8026C
:102EE0000E94A208B5010E94D5072091B902207F57
:102EF0008816990608F025C19091B4023091B50268
:102F00004091B7025091B8022111ADC0452B31F06C
:102F10003F3F31F481E09F3F19F403C081E001C0DD
:102F200080E080FD19C0031317C0791215C0162D5B
:102F3000611012C08091B9028F7080618093B902D4
:102F40000E946D1684EB92E00E94FD158091B902FB
:102F5000D70115968C93AFC120E04091B4025091F7
:102F6000B5026091B6027091B7028091B8020E94DA
:102F7000A208B7010E94D507843F914030F1C114E7
:102F8000D10439F00F3F39F481E0EFEF7E1203C036
:102F900003C081E001C080E080FD03C081E08625A0
:102FA00002C080E090E080FF10C0462D602F872D8A
:102FB0000E947B16882349F084EB92E00E94FD1565
:102FC000E4EBF2E086E0DF01CDC0CD2839F00F3F21
:102FD00039F481E0BFEF7B1203C003C081E001C080
:102FE00080E080FD03C081E0862502C080E090E0A3
:102FF000E82FE170DE2E80FF2CC0462D602F872D3C
:103000000E947B16182F811124C07D860E878D8526
:103010009E850E94651C292F22952F70223018F062
:10302000243090F405C09F7059F0811109C043C14C
:103030009F7031F0D70115969C91907F09F43BC1A8
:10304000805E883008F437C1C7010E94FD151D2D30
:1030500032C1162D662009F42EC18091B90281601B
:103060008093B90284C0452B31F03F3F31F481E0B9
:103070009F3F19F403C081E001C080E080FD16C0CD
:10308000031314C0791212C0611010C08091B902EC
:10309000F7018583C7010E94FD1586E0F701A4EBC7
:1030A000B2E001900D928A95E1F703C17D860E870B
:1030B0008D859E850E94AA138823F1F16620E1F197
:1030C0002091B902822F82958F7090E0029774F060
:1030D0008091B4029091B50298878F831986DB8620
:1030E000CA862C87CE0107960E94FD1586E0F7015F
:1030F000A4EBB2E001900D928A95E1F70E949B1635
:103100000E946D161CC09091B4022091B5024091AE
:10311000B7025091B802452B61F12F3F61F581E074
:103120009F3F49F580FF29C07D860E878D859E854E
:103130000E94AA13811136C0C7010E94FD1511E03B
:10314000BAC02111E0CF7C2DD98AC88A472D502FD3
:10315000662D89890E942D1684EB92E00E94FD1550
:1031600086E0D5011D928A95E9F70E946D1610E060
:10317000A2C081E0D7CF80E0D5CF0213D5CF79129E
:10318000D3CF6110D1CF8091B902F7018583C701F8
:103190000E94FD1586E0E4EBF2E0DF011D928A95C6
:1031A000E9F789C0662041F22091B902822F829509
:1031B0008F7090E002970CF499CF8091B4029091B7
:1031C000B5029A8389831B82DD82CC822E83CE0155
:1031D00001968ACF60E07091B7028091B8020E9498
:1031E000A20864EB72E00E94D50788169906B8F52C
:1031F000162D662009F4A0CF9091B4022091B5025B
:103200004091B7025091B802452B31F02F3F31F475
:1032100081E09F3F19F403C081E001C080E080FDA0
:103220000DC002130BC0791209C086E0F701A4EBB0
:10323000B2E001900D928A95E1F73DC07D860E8740
:103240008D859E850E94AA13811150CF8091B9026D
:1032500081608093B902C7010E94FD152CC07C2DAE
:10326000D98AC88A472D502F662D89890E942D162C
:1032700086E0F50111928A95E9F71BC0662009F4F2
:103280005BCF7D860E878D859E850E94AA13182FA1
:10329000882309F451CF86E0F701A4EBB2E0019056
:1032A0000D928A95E1F784EB92E00E94CC120E9485
:1032B0009B160E946D16812F61960FB6F894DEBFA3
:1032C0000FBECDBFDF91CF911F910F91FF90EF9077
:1032D000DF90CF90BF90AF909F908F907F906F9036
:1032E00008951F93CF93DF93CDB7DEB72C970FB61A
:1032F000F894DEBF0FBECDBF4F83588769877A87AA
:103300008B879C87CE0107960E941B178823D1F0DC
:103310009F8188852A853B85232B31F08F3F31F4AF
:1033200081E09F3F19F403C081E001C080E080FD8F
:1033300047C04F81588569857A858B859C850E9419
:103340003C163EC086E0FE013796DE0111960190E4
:103350000D928A95E1F7FF81E8856A857B85611585
:10336000710531F0EF3F31F481E0FF3F19F403C004
:1033700081E001C080E080FD23C02091830230E025
:10338000C9010196877099274091820250E0841705
:103390009507F1F1F983EA837D836C8396E0929F30
:1033A000D001939FB00D1124AC57BD4FFE01319653
:1033B00001900D929A95E1F7809383020E944C163A
:1033C00016E08091820290918302891771F1189F13
:1033D000C00111248C579D4F0E941B17882329F18F
:1033E000E09182021E9FF0011124EC57FD4F4081B5
:1033F000518162817381848195810E943C16809104
:10340000820290E001968770992780938202D9CF3B
:103410000E9482131092830210928202E4EBF2E087
:1034200086E0DF011D928A95E9F72C960FB6F89495
:10343000DEBF0FBECDBFDF91CF911F910895EF92F8
:10344000FF920F931F93CF93DF938C01892B09F485
:103450006CC0F12CEE24E394E8012196F8018491EC
:10346000843740F4843008F051C0813081F08230DC
:1034700019F15BC0853709F444C0A8F19CE7980FA7
:10348000903708F052C08F770E940D1341C00E5F35
:103490001F4FFE01849190E2980F983050F487708E
:1034A000FE2D01C0FF0F8A95EAF78F2F0E94CA1CDC
:1034B00014C00E94D2122DC00E5F1F4FFE018491D6
:1034C00090E2980F983060F48770FE2D01C0FF0FD6
:1034D0008A95EAF78F2F0E94D01C0E94F51C19C014
:1034E0000E940D1316C00E5F1F4FFE01C491CC2326
:1034F00081F08FE99FE00197F1F700C00000C15013
:10350000F6CF0E5F1F4FFE01F49003C00E94D2124F
:103510008E018F2D882309F49FCFEFE9FFE03197CB
:10352000F1F700C000008150F5CFDF91CF911F91DE
:103530000F91FF90EF900895089508950C949D1AAF
:103540000C949E1A0E94A01A6093DC027093DD0214
:103550008093DE029093DF020C9470130C94A21AF5
:103560000F931F930091DC021091DD022091DE0287
:103570003091DF02602B712B822B932B1F910F91C7
:103580000C94A21A0F931F930091DC021091DD029C
:103590002091DE023091DF02602371238223932386
:1035A0001F910F910C94A21A0F931F930091DC02AC
:1035B0001091DD022091DE023091DF026027712739
:1035C000822793271F910F910C94A21A0C949D1A95
:1035D0000E94E61A6093D8027093D9028093DA02AF
:1035E0009093DB020C94701360E070E0CB010C94BC
:1035F000E81A611571058105910529F481E04423DC
:1036000061F080E00895DC01CB0104C0B695A79578
:10361000979587954A95D2F781700895482F6091C4
:10362000D8027091D9028091DA029091DB020C9459
:10363000F91A0F931F9341E050E060E070E08A01B7
:103640009B0104C0000F111F221F331F8A95D2F760
:10365000C901B8011F910F910C94E81A0F931F93A1
:1036600041E050E060E070E004C0440F551F661F69
:10367000771F8A95D2F78091D8029091D902A091B4
:10368000DA02B091DB028A019B01082B192B2A2B4D
:103690003B2BC901B8011F910F910C94E81A0F93AD
:1036A0001F9341E050E060E070E004C0440F551FFC
:1036B000661F771F8A95D2F7409550956095709553
:1036C0008091D8029091D902A091DA02B091DB02E8
:1036D0008A019B01082319232A233B23C901B8012E
:1036E0001F910F910C94E81A0F931F9341E050E043
:1036F00060E070E004C0440F551F661F771F8A9575
:10370000D2F78091D8029091D902A091DA02B091BB
:10371000DB028A019B01082719272A273B27C901B9
:10372000B8011F910F910C94E81A0F931F93009109
:10373000D8021091D9022091DA023091DB02602B7D
:10374000712B822B932B1F910F910C94E81A0F93DE
:103750001F930091D8021091D9022091DA02309182
:10376000DB0260237123822393231F910F910C941A
:10377000E81A0F931F930091D8021091D90220915B
:10378000DA023091DB0260277127822793271F918D
:103790000F910C94E81A089527E0929F800D112450
:1037A000E82FE695E695E695877051E001C0550F44
:1037B0008A95EAF785E0E89FF0011124E654FD4F71
:1037C00020E030E070E04081CB01022E02C09695EF
:1037D00087950A94E2F78170819584278523842751
:1037E00081932F5F3F4F2530310569F7089527E01A
:1037F000929F800D1124682F669566956695982F87
:10380000977085E0689FB001112440E050E080E0AF
:10381000FB01E40FF51FE654FD4F208130E0092E37
:1038200002C0369527950A94E2F721703327042EBB
:1038300001C0220F0A94EAF7822B4F5F5F4F453099
:10384000510531F70895BF92CF92DF92EF92FF9228
:103850000F931F93CF93DF938C01C090D802D09029
:10386000D902E090DA02F090DB028091DC029091C4
:10387000DD02A091DE02B091DF02C82AD92AEA2A2D
:10388000FB2ACFE1D0E0D701C6010C2E04C0B695CB
:10389000A795979587950A94D2F780FD04C0219744
:1038A00090F7B12C07C0BC2EB8018C2F0E94810963
:1038B0000197A9F38B2DDF91CF911F910F91FF906D
:1038C000EF90DF90CF90BF900895CF93DF93EC01FE
:1038D0000E94231CBE010E948109DF91CF910895AF
:1038E0001F93CF93DF93EB0190917F02992321F0F7
:1038F000CB010E94651C13C0882349F0CB010E94B4
:10390000231C182F682FCE010E94CC1B04C0CB01B2
:103910000E94F71B182FBE01812F0E948109DF91A1
:10392000CF911F9108958091E002859585958595A9
:1039300008958091E002877008959091E002977059
:1039400081E009F480E00895809104030895909146
:103950000403892B809304030895809590910403B8
:10396000892380930403089510920403089580919D
:103970000303089590910303892B80930303089513
:1039800080959091030389238093030308951092F7
:103990000303089590910203892B809302030895F5
:1039A00080959091020389238093020308951092D9
:1039B000020308958091E102089508950C94DD1C9E
:1039C0000C94DE1C9091E102981721F08093E102A3
:1039D0000C94E01C08958091E102882329F0109254
:1039E000E10280E00C94E01C0895E091C501F091A3
:1039F000C601809104038083E091C501F091C60166
:103A0000908180910303892B8083E091C501F0911F
:103A1000C601908180910203892B80838091E1020D
:103A2000882381F0E091C501F091C6019081892B36
:103A300080838091C5019091C6010E94041E81116E
:103A40000E94EB1C8091C5019091C6010C947611E7
:103A50000C94DD1C98E0899F90011124262B209363
:103A6000E0020E942E1B8091E00285958595859548
:103A70000C94281D1092E00280E00C94281D2091E7
:103A8000E002809582238093E002982F977079F46A
:103A900030E0482F082E000C550B2417350739F05D
:103AA0008595859585950E944F1B0C943A1D089528
:103AB00080E090E00E94EE2D21E08C3E9E4F09F0C8
:103AC00020E0822F089582E090E00C94E62D83E0C0
:103AD00090E00C94E62D682F83E090E00C94F42D98
:103AE000CF9384E090E00E94E62DC82F81E290E021
:103AF0000E94E62D2C2F30E0A901582BCA01CF914E
:103B00000895CF93C92F682F84E090E00E94F42D90
:103B10006C2F81E290E0CF910C94F42DAB01BC01AD
:103B20008FE090E00C94062EAB01BC0183E190E0A5
:103B30000C94062E60E070E0CB010C94941D60E0C4
:103B400070E0CB010E948E1D0C949A1D6CEE7EEFEE
:103B500080E090E00E94122E60E082E090E00E94FF
:103B6000F42D60E083E090E00E94F42D1092DC02DE
:103B70001092DD021092DE021092DF0260E084E01B
:103B800090E00E94F42D60E081E290E00E94F42D2C
:103B900060E085E090E00E94F42D60E086E090E037
:103BA0000E94F42D6FEF87E090E00E94F42D40E03A
:103BB00050E0BA0188E090E00E94062E60E08DE0BF
:103BC00090E00E94F42D40E050E0BA0188E190E0DE
:103BD0000E94062E60E087E190E00E94F42D40E014
:103BE00050E0BA018CE190E00E94062E60E080E295
:103BF00090E00E94F42D0C949F1D0C94A61D682F3C
:103C00008EE090E00C94F42DFC0132968091E50159
:103C1000882331F080913E0387FF02C09EE101C0FE
:103C200096E080E0915028F021912223D9F38F5F14
:103C3000F9CF0895662351F12091E5012223E9F09F
:103C400020913E0327FF19C0462F4695469546957D
:103C50004E31E0F4677021E030E002C0220F331FE4
:103C60006A95E2F7FC01E40FF11D828190E02823C0
:103C7000392381E0232B69F409C0FC0132960896B0
:103C80002191621729F0E817F907D1F780E008952C
:103C900081E008959C01FC0132969FEF80E0419104
:103CA000461789F09F3F19F4411101C0982F8F5F8B
:103CB0008630A9F79F3F39F0F901E90FF11D97FD13
:103CC000FA956283089508959C012A5F3F4FFC0195
:103CD0004281461301C01282019682179307B9F7F9
:103CE0000895262F2695269526952E3168F4FC01F9
:103CF000E20FF11D677021E030E001C0220F6A95EC
:103D0000EAF78281282B22830895262F269526956F
:103D100026952E3170F4FC01E20FF11D677021E051
:103D200030E001C0220F6A95EAF7209582812823AE
:103D3000228308952091E501222329F020913E035A
:103D400027FD0C94711E0C944A1E2091E50122233C
:103D500029F020913E0327FD0C94851E0C94641ECF
:103D60002091E501FC013296222331F080913E033F
:103D700087FF02C08EE101C086E0DF011D928A95B7
:103D8000E9F7089508950C94C21E0C94C21ECF93B7
:103D90000E94C51E0E9432060E94C31EC0E08C2FE6
:103DA0000E949106811104C0CF5FC630C1F701C0E7
:103DB00081E0CF9108950C94C21E0C94DB1E0E94EA
:103DC000DD1E80913104843049F11092060320E415
:103DD00088E190E00FB6F894A895809360000FBE3C
:103DE0002093600080E00E94FC080E94DD1E83B7E3
:103DF000817F846083BF83B7816083BF7894889517
:103E000083B78E7F83BF0FB6F894A895809160002A
:103E1000886180936000109260000FBE08950C943A
:103E2000C21E0E9482130E946A110E94FC080C9418
:103E30000F1F1F920F920FB60F9211248F939F9313
:103E4000AF93BF9380910603811113C080913A0311
:103E500090913B03A0913C03B0913D034196A11D7D
:103E6000B11D80933A0390933B03A0933C03B0931E
:103E70003D03BF91AF919F918F910F900FBE0F9017
:103E80001F90189582E084BD93E095BD9AEF97BD91
:103E900080936E0008952FB7F89480913A03909123
:103EA0003B03A0913C03B0913D032FBF08959C01BB
:103EB0004FB7F89480913A0390913B03A0913C0353
:103EC000B0913D034FBF821B930B089578941F92CE
:103ED0000F920FB60F9211248F939F93AF93BF93BE
:103EE00080913A0390913B03A0913C03B0913D0334
:103EF0000196A11DB11D80933A0390933B03A093BB
:103F00003C03B0933D03BF91AF919F918F910F9070
:103F10000FBE0F901F90189587E797E790930108C1
:103F2000809300089AE088E10FB6F894A8958093F2
:103F300060000FBE90936000FFCF0E94581D81115A
:103F400002C00E94FD1D0E94631D809305030E9414
:103F5000701D90933F0380933E030E94671D682F5E
:103F600070E080E090E00E94AE1A6091D8027091FB
:103F7000D9028091DA029091DB020C94E61A8091CA
:103F80000D0380FF0BC06091CC0185E0689FB001FC
:103F9000112475956795759567952BC081FF09C0AC
:103FA0006091CC0185E0689FB001112475956795FB
:103FB00020C082FF07C06091CC0185E0689FB001FE
:103FC000112417C090910C039923D1F06091CB017B
:103FD000961788F72091CC0185E0289F9001112445
:103FE000929FA001939F500D112470E0CA010E947E
:103FF000BF2D6038710540F46115710519F406C0D4
:1040000065E070E0862F08958FE7089581E00895B8
:1040100080910D0380FF08C06091C80170E0759524
:1040200067957595679521C081FF06C06091C801AD
:1040300070E07595679519C082FF04C06091C80152
:1040400070E010C090910B03992399F06091C70123
:104050009617A0F78091C801899FC001112470E0D4
:104060000E94BF2D6038710540F46115710519F487
:1040700006C061E070E0862F08958FE7089581E023
:104080000895803F21F40E94BF1F819504C0813FA5
:1040900029F40E94BF1F809311030895823F21F4E9
:1040A0000E94BF1F819504C0833F29F40E94BF1F57
:1040B000809310030895893F19F40E94082005C0D9
:1040C0008A3F31F40E94082081958093120308955D
:1040D0008B3F21F40E940820819504C08C3F29F475
:1040E0000E940820809313030895843F21F4809157
:1040F0000F03816017C0853F21F480910F03826018
:1041000011C0863F21F480910F0384600BC0873F6C
:1041100021F480910F03886005C0883F31F48091BD
:104120000F03806180930F0308958D3F21F48091E8
:104130000D0381600BC08E3F21F480910D038260DE
:1041400005C08F3F29F480910D03846080930D0397
:104150000895803F39F48091110387FF6AC010925F
:10416000110367C0813F29F4809111031816BCF335
:1041700060C090911003823F29F497FF5AC01092BB
:10418000100357C0833F19F41916CCF352C0909115
:104190001203893F31F419160CF04BC01092120330
:1041A00048C08A3F19F497FF44C0F8CF8B3F39F4D9
:1041B0008091130387FF3DC0109213033AC08C3FD8
:1041C00029F4809113031816BCF333C0843F21F403
:1041D00080910F038E7F17C0853F21F480910F03DC
:1041E0008D7F11C0863F21F480910F038B7F0BC020
:1041F000873F21F480910F03877F05C0883F31F40A
:1042000080910F038F7E80930F0313C08D3F21F4A5
:1042100080910D038E7F0BC08E3F21F480910D03A2
:104220008D7F05C08F3F29F480910D038B7F809394
:104230000D0380911003811106C08091110381113B
:1042400002C010920C0380911203811106C080916C
:104250001303811102C010920B0308950E944B1F9B
:1042600020911003211104C020911103222321F079
:1042700090930A038093090320911203211104C033
:1042800020911303222321F09093080380930703C6
:104290008EE093E00C949011EF92FF920F931F9396
:1042A000CF93DF9300D000D000D0CDB7DEB786E04B
:1042B000EEE0F3E0DE01119601900D928A95E1F7B0
:1042C000E0901003F090110300911203109113037A
:1042D0001092100310921103109212031092130304
:1042E000E11003C0FF2009F45DC0809109039091A3
:1042F0000A030E94571FAC0190910C03992339F0D7
:104300002091CD0130E02417350758F04BC02091A3
:10431000CE018AE0289F900111242417350718F058
:1043200041C09F3F19F09F5F90930C03EE2061F016
:104330000E94BF1F1E1414F09FEF01C091E0989FD0
:10434000902D112490931003FF2061F00E94BF1F55
:104350001F1414F09FEF01C091E0989F902D11243D
:1043600090931103309110033323E1F02091110356
:104370002223C1F045EB3403C0011124992319F025
:104380009093100303C081E08093100335EB230367
:10439000C0011124992319F09093110303C081E007
:1043A00080931103011103C0112309F45DC08091B2
:1043B0000703909108030E94571FAC0190910B03D3
:1043C000992339F02091C90130E02417350758F0BE
:1043D0004BC02091CA018AE0289F90011124241724
:1043E000350718F041C09F3F19F09F5F90930B0372
:1043F000002361F00E940820101614F09FEF01C006
:1044000091E0989F902D112490931203112361F055
:104410000E940820111614F09FEF01C091E0989FB0
:10442000902D112490931303309112033323E1F064
:10443000209113032223C1F045EB3403C001112462
:10444000992319F09093120303C081E08093120323
:1044500035EB2303C0011124992319F09093130322
:1044600003C081E0809313038091100381110BC07E
:1044700080911103811107C080911203811103C043
:104480008091130381110E942E21EB82FC820D8307
:104490001E8386E0FE013196AEE0B3E001900D92FE
:1044A0008A95E1F726960FB6F894DEBF0FBECDBF12
:1044B000DF91CF911F910F91FF90EF900895EEE063
:1044C000F3E086E0DF011D928A95E9F710920C0374
:1044D00010920B0310920D030895881F8827881FE0
:1044E000089591E0883F08F490E0892F0895982F6F
:1044F000907F903BF1F038F49039D9F0903AC9F0C0
:104500009038C9F416C0903D49F018F4903C31F051
:1045100012C0903E71F0903F19F00DC082E00895F6
:10452000815F8F3040F4E82FF0E0ED50FE4F808146
:10453000089583E0089580E008950F93022F0F7788
:10454000242F2F776F70462F406BDC01ED91FC918B
:1045500063E070E009950F9108950F93022F0F7794
:10456000242F2F776F70462F4069DC01ED91FC916D
:1045700063E070E009950F9108950F93022F0F7774
:10458000242F2F776F70462F4068DC01ED91FC914E
:1045900063E070E009950F9108950F931F93411503
:1045A00020E252073CF44115A0EE5A0734F09A017C
:1045B000305E05C02FEF3FE302C020E030E089010C
:1045C000000F012F001F110B11952F77462F4F70F1
:1045D000406EDC01ED91FC9163E070E009951F9164
:1045E0000F910895FC01738362830895FC01758F18
:1045F000648F0895CF93DF93EC011DA21FA21EA22A
:10460000BC01685D7F4F40EC88519F4F0E941D2583
:104610001B821A821D821C821F821E8219861886A6
:104620001B861A861D861C861F861E86198A188A76
:104630001B8A1A8A1D8A1C8A1F8A1E8A198E188E46
:104640001B8E1A8E1D8E1C8E1F8E1E8E19A218A2F6
:10465000DF91CF910895EF92FF920F931F93CF9325
:10466000DF93EA018A01060F111D88519F4F7C01DB
:10467000C017D10729F06991C7010E942425F8CFFE
:10468000DF91CF911F910F91FF90EF900895FC0162
:10469000718360830895FC0171A360A30895AF92B4
:1046A000BF92CF92DF92EF92FF920F931F93CF931F
:1046B000DF9300D01F92CDB7DEB77C016B01142FC2
:1046C000B22EA02EDC0195968C9195978430F1F452
:1046D0005A96ED91FC915B97309709F4BEC0CB01DF
:1046E000019763E070E00E94AB2DCB01880F991F0A
:1046F000860F971F4983BA820B834C2D481B9E015E
:104700002F5F3F4FBC01C7010995B4C062307105EE
:1047100009F452C06330710529F06130710509F068
:1047200099C080C0842F807F803AF9F058F4803897
:10473000B1F0803909F091C0D7011496ED91FC9148
:1047400015972AC0803EB9F0803FD9F0803B09F030
:1047500084C0D7011296ED91FC9113971DC0D7012B
:104760001696ED91FC91179717C0D7011896ED9109
:10477000FC91199711C0D7011A96ED91FC911B97E6
:104780000BC0423F09F069C0D7011C96ED91FC9126
:104790001D97309731F461C0309709F45EC0123F25
:1047A00021F42A2D4B2D62EF04C02A2D4B2D612FB1
:1047B0006F70C70109955EC0842F807F803D59F0DE
:1047C000803F79F0803C09F048C0D7011E96ED91FA
:1047D000FC911F9718C0D7015096ED91FC9151970D
:1047E00012C0433F31F4D7015296ED91FC9153979B
:1047F00007C0413F91F5D7015496ED91FC91559733
:10480000309739F42AC0309741F1812F8D7F813F55
:1048100019F44B2D612F03C04B2D612F6F70C70111
:10482000099528C0842F0E947122882331F0D70176
:104830005696ED91FC91579707C0163F71F4D7013A
:104840005896ED91FC915997309739F0612FC70137
:10485000099510C064307105D8F4D7015C96ED91CC
:10486000FC915D97309731F00A2D2B2D412FB60129
:10487000C7010995D7015E96ED91FC915F9730973E
:1048800051F00A2D2B2D412FB601C701099503C008
:10489000C12CD12CE2CF0F900F900F90DF91CF91D0
:1048A0001F910F91FF90EF90DF90CF90BF90AF904E
:1048B0000895FF920F931F93CF93DF93EC01162F70
:1048C000862F0E947122882369F0FDA081E08DA3CC
:1048D00000E020E0412F61E070E0CE010E944F2314
:1048E000FDA270C0812F0E946D224DA1882309F482
:1048F00040C0443029F01AA381E090E09FA38EA32A
:10490000812F0E947722813031F070F0823051F097
:10491000833041F02AC08DA300E020E0412F61E008
:1049200070E01EC08DA34EC0103FB1F0173FE9F4F8
:104930002EA13FA1C90163E070E00E94AB2DFE01F2
:10494000E80FF91F12A3B9016F5F7F4F7FA36EA31A
:104950000CA12BA14AA104C084E08DA31AA329C0F5
:10496000CE010E944F231DA22DC01DA21FA21EA278
:1049700029C0442339F12EA13FA1C90163E070E0B1
:104980000E94AB2DFE01E80FF91F12A3B9016F5F62
:104990007F4F7FA36EA38130910581F0029791F440
:1049A0000CA12BA14AA1CE010E944F238DA18430DE
:1049B00049F081E090E09FA38EA304C0423011F43F
:1049C00000E0EFCFDF91CF911F910F91FF900895FD
:1049D000CF92DF92EF92FF920F931F93CF93DF93CB
:1049E000EC01E8A1F9A1309709F009956E0188EE74
:1049F000C80ED11CC6010E945425E12CF12C082FB1
:104A000010E0E016F10680F460E0C6010E946A251D
:104A1000682FCE010E94592461E0C6010E947B25C7
:104A20008FEFE81AF80AEDCFDF91CF911F910F9128
:104A3000FF90EF90DF90CF900895FC014283748344
:104A400063831182108208951F93CF93DF93EC014B
:104A5000162F0E949325E82F298130E0C901019685
:104A60006A8170E00E94BF2D488150E0841795074D
:104A700029F48E2F0E94962580E012C08B819C81A4
:104A8000DC01A20FB31F1C93898190E001966A811B
:104A900070E00E94BF2D89838E2F0E94962581E0B1
:104AA000DF91CF911F9108950F931F93CF938C01A6
:104AB0000E949325F801C1812081C21718F4F801E2
:104AC0009281C90FC21B0E9496258C2FCF911F91F6
:104AD0000F910895FC012081862F90E0820F911D97
:104AE000628170E00E94BF2D0380F481E02DE80F09
:104AF000F91F808108951F93CF93DF93EC01162F48
:104B00000E949325282F3881812F90E0830F911DDB
:104B10006A8170E00E94BF2D8883822FDF91CF9140
:104B20001F910C9496258FB7F89408958FBF089520
:104B3000089508950F931F93CF93DF93CDB7DEB7FA
:104B400027970FB6F894DEBF0FBECDBF8C01CE0104
:104B500001960E940128882309F18A810E94772208
:104B60009A819D839B819E839C819F8381110EC02E
:104B70008981843041F0873031F0863031F08530E2
:104B800031F781E003C083E001C082E0AE014B5FFA
:104B90005F4F682FC8010E942B23D9CF27960FB6ED
:104BA000F894DEBF0FBECDBFDF91CF911F910F9163
:104BB0000895DF92EF92FF920F931F93CF93DF93AD
:104BC00000D000D0CDB7DEB77B01142FD22E4A83A0
:104BD0002B830C83842F0E94772281111CC082E0DA
:104BE000E816F10471F083E0E816F10421F0EA948C
:104BF000EF28C1F40CC0073F11F487E006C084E041
:104C000004C087EFD812FBCF86E0898307C0173F27
:104C1000B1F785E0FACF12951F701983CE01019686
:104C20000E94FC270F900F900F900F90DF91CF9173
:104C30001F910F91FF90EF90DF9008950E945A0B03
:104C400080E493E00E94FA2269ED75E280E493E04B
:104C50000E9447236AE975E280E493E00E944B23B7
:104C600068E975E280E493E00E94F62269E975E262
:104C700080E493E00C94F222209131042430D9F4A2
:104C80009B01FC0181818F708093E90040E050E03E
:104C900064E070E0C9010E94C22881110FC09091A8
:104CA000E800892F807295FD08C09091E8009E77FA
:104CB0009093E800089582E0089580E0089520919F
:104CC00031042430A1F4FC0181818F708093E900CC
:104CD0002091F3008091F20090E0922B892B49F013
:104CE0008091E8008E778093E8000C946B2A82E034
:104CF000089580E00895FC0180913104843059F4D6
:104D000091819F709093E9008091E80080FF03C03B
:104D1000CF010C945F26089520913104243011F0C6
:104D200080E00895FC0186818F708093E900809176
:104D3000E80082FFF5CF8091E80085FFF1CFCB013D
:104D400040E050E064E070E00E940D298091E800AE
:104D500085FD05C08091E8008B778093E80081E0B5
:104D60000895809134030895089522E02093E90086
:104D70002FEF3091E800215035FD06C035ED3A9512
:104D8000F1F700002111F5CF2091E80025FF0BC0BD
:104D900040E050E066E070E00E94C2288091E800A8
:104DA0008E778093E8000895CF93DF932091E501FB
:104DB000222339F020913E0327FF03C060E222E066
:104DC00002C068E021E02093E9002FEF3091E80075
:104DD000215035FD06C035ED3A95F1F7000021115F
:104DE000F5CF2091E80025FF1DC0EC018091E50181
:104DF000811105C040E050E068E070E003C070E061
:104E000040E050E0CE010E94C2288091E8008E77F9
:104E10008093E80080E2FE01A4E1B3E001900D92EE
:104E20008A95E1F7DF91CF9108950895809130043C
:104E3000811109C00E949E2A0E94FB2A8091E200F3
:104E400084608093E20008951092300408950895DC
:104E500008950C94111F42E061EC81E00E94172A32
:104E600042E261EC82E00E94172A42E361E883E0BB
:104E70000E94172A42E361E884E00C94172A80918B
:104E80003304833009F460C030F4813071F0823033
:104E900009F499C008958A3009F485C08B3009F46B
:104EA0006BC0893009F0A7C020C080913204813ADC
:104EB00009F0A1C08091E800877F8093E80080918D
:104EC000360490913704892B21F460E284E193E069
:104ED00003C060E080E090E070E00E94582980917B
:104EE000E8008B778093E800089580913204813246
:104EF00009F081C08091360490913704029708F040
:104F00007AC08091E800877F8093E8008091E80074
:104F100082FD05C0809131048111F8CF6CC02091D1
:104F2000F3008091F20090E0922B029729F4809197
:104F3000F1008B7F813021F48091F1008093340364
:104F40008091E8008B7753C080913204813A09F058
:104F500052C08091360490913704892B09F04BC0E0
:104F60008091E800877F8093E8008091E80080FFCF
:104F7000FCCF8091E50136C0809132048132D9F5B1
:104F80008091360490913704892BA9F58091E8002F
:104F9000877F8093E8000E944C2A8091340480939C
:104FA000E5010C94821380913204813221F58091C5
:104FB000E800877F8093E8000E944C2A80913504A6
:104FC00080933503089580913204813AA1F4809151
:104FD000E800877F8093E8008091E80080FFFCCFA5
:104FE000809135038093F1008091E8008E77809363
:104FF000E8000C944C2A0895BC018FEC91E00C94CD
:105000003C26BC018FEC91E00C948C260E941E265D
:1050100084B7877F84BF0FB6F894A895809160000D
:10502000886180936000109260000FBE90E080E87D
:105030000FB6F89480936100909361000FBE0E94B8
:10504000D8110E949E2A0E94FB2A8091E20084606F
:105050008093E20078940E94902D0E94E2118BEDE3
:1050600091E00E94651180913104853069F40E94BD
:10507000DF1E80912F048823B1F30E94C71E88236E
:1050800091F30E94AC28EFCF0E94EA118FEC91E0DF
:105090000E947B26E8CF0C944D28292F33272330FC
:1050A0003105C9F060F42130310581F0223031053D
:1050B00009F04AC08FE990E022E334E049C0213290
:1050C000310511F12232310579F13EC082E190E0E3
:1050D00021ED34E03DC099278130910561F040F029
:1050E0008230910559F0039779F5EAE0F4E008C0C1
:1050F000EEE2F4E005C0E2E2F4E002C0E0E1F4E058
:10510000849190E09F0124C06115710541F06130E8
:105110007105D1F489E090E02DE534E019C089E013
:1051200090E024E434E014C06115710541F0613071
:10513000710551F48AE890E023EE34E009C080E480
:1051400090E02DE635E004C080E090E020E030E023
:10515000FA0131832083089580E189BD82E189BD10
:1051600009B400FEFDCF8091D8008F7D8093D800D8
:105170008091E00082608093E0008091E00081FDFA
:10518000FCCF0895CF92DF92EF92FF920F931F937F
:10519000CF93DF93EC018B017A010E946B2A81117E
:1051A00033C0E114F10439F0F70180819181081BCB
:1051B000190BC80FD91FC12CD12C0115110519F1DC
:1051C0008091E80085FD16C08091E8008E7780937D
:1051D000E800E114F10449F0F70180819181C80EE3
:1051E000D91ED182C08285E00FC00E946B2A88231D
:1051F00021F30AC089918093F10001501109FFEF5A
:10520000CF1ADF0ADACF80E0DF91CF911F910F91A3
:10521000FF90EF90DF90CF900895CF92DF92EF92C2
:10522000FF920F931F93CF93DF93EC018B017A01D1
:105230000E946B2A811133C0E114F10439F0F701A7
:1052400080819181081B190BC80FD91FC12CD12C4B
:105250000115110519F18091E80085FD16C08091B6
:10526000E8008B778093E800E114F10449F0F7013E
:1052700080819181C80ED91ED182C08285E00FC085
:105280000E946B2A882321F30AC08091F100899340
:1052900001501109FFEFCF1ADF0ADACF80E0DF916A
:1052A000CF911F910F91FF90EF90DF90CF900895D5
:1052B00020913804309139042617370748F06115DA
:1052C000710539F42091E8002E772093E80001C0A1
:1052D000B901FC0120E06115710579F1809131047B
:1052E0008823F1F18530F1F18091E80083FD3CC025
:1052F0008091E80082FD2EC08091E80080FFEBCF16
:105300002091F3008091F20090E0922B61157105DD
:1053100051F08830910538F421912093F1006150CB
:1053200071090196F3CF21E0089709F020E0809100
:10533000E8008E778093E800CECF2111CFCF0AC04E
:1053400080913104882361F0853061F08091E8001C
:1053500083FD0AC08091E80082FFF2CF80E00895CB
:1053600082E0089583E0089581E008952091380453
:10537000309139042617370748F06115710539F463
:105380002091E8002E772093E80001C0B901FC01CC
:1053900020E06115710591F180913104882309F4B1
:1053A00040C0853009F43FC08091E80083FD3DC0D6
:1053B0008091E80082FD2FC08091E80080FFE9CF56
:1053C0002091F3008091F20090E0922B611571051D
:1053D00059F08830910540F424912093F1003196E2
:1053E000615071090196F2CF21E0089709F020E0A1
:1053F0008091E8008E778093E800CBCF2111CCCF4D
:105400000AC080913104882361F0853061F0809179
:10541000E80083FD0AC08091E80082FFF2CF80E0BF
:10542000089582E0089583E0089581E00895982F1B
:10543000973068F59093E900981739F07091EC0077
:105440002091ED005091F00003C0242F762F50E002
:1054500021FD02C09F5FECCF3091EB003E7F309387
:10546000EB003091ED003D7F3093ED003091EB008B
:1054700031603093EB007093EC002093ED0050937B
:10548000F0002091EE0027FDE5CF80E008958F70B9
:105490008093E90081E008958091320487FF11C074
:1054A0008091E80082FD05C0809131048111F8CF20
:1054B00011C08091E8008B770BC080913104882364
:1054C00049F08091E80080FFF8CF8091E8008E7766
:1054D0008093E80008952091E4003091E50095E67E
:1054E0004091EC00842F817040FF23C08091E80040
:1054F00080FD1DC080913104882399F0853099F09A
:105500008091EB0085FD11C04091E4005091E500D1
:105510002417350729F3915011F09A01E1CF84E067
:10552000089582E0089583E0089581E0089580E081
:1055300008954091E80042FFDDCF08950E940C2BB2
:105540000E94142BE0EEF0E0808181608083E8ED22
:10555000F0E080818F77808319BCA7EDB0E08C915B
:105560008E7F8C9380818F7E80831092300408958B
:105570000F931F93CF93DF930E940C2B0E94142B49
:10558000C8EDD0E088818F778883888180688883A0
:1055900088818F7D888319BC1092310410922D046C
:1055A00010922F0410922E0400EE10E0F80180817A
:1055B0008B7F808388818160888342E060E080E027
:1055C0000E94172AE1EEF0E080818E7F8083E2EE78
:1055D000F0E0808181608083808188608083F80131
:1055E00080818E7F8083888180618883DF91CF91E5
:1055F0001F910F910895E8EDF0E080818F7E808308
:10560000E7EDF0E080818160808384E082BF81E00B
:10561000809330040C94B82AE8EDF0E080818E7F0E
:1056200080831092E20008951092DA001092E10057
:1056300008951F920F920FB60F9211242F933F934C
:105640004F935F936F937F938F939F93AF93BF938A
:10565000EF93FF938091E10082FF0BC08091E20005
:1056600082FF07C08091E1008B7F8093E1000E9460
:105670008F2D8091DA0080FF1FC08091D80080FFBD
:105680001BC08091DA008E7F8093DA008091D90070
:1056900080FF0DC080E189BD82E189BD09B400FEB3
:1056A000FDCF81E0809331040E94162705C019BC0C
:1056B000109231040E9424278091E10080FF19C0DC
:1056C0008091E20080FF15C08091E2008E7F809380
:1056D000E2008091E20080618093E2008091D80036
:1056E00080628093D80019BC85E0809331040E94C9
:1056F00028278091E10084FF30C08091E20084FF80
:105700002CC080E189BD82E189BD09B400FEFDCFD6
:105710008091D8008F7D8093D8008091E1008F7EAA
:105720008093E1008091E2008F7E8093E20080917F
:10573000E20081608093E20080912D04882311F0C3
:1057400084E007C08091E30087FD02C081E001C0D2
:1057500083E0809331040E9429278091E10083FF38
:1057600029C08091E20083FF25C08091E100877FFE
:105770008093E10082E08093310410922D048091A7
:10578000E1008E7F8093E1008091E2008E7F809324
:10579000E2008091E20080618093E20042E060E0FC
:1057A00080E00E94172A8091F00088608093F000CA
:1057B0000E942727FF91EF91BF91AF919F918F9109
:1057C0007F916F915F914F913F912F910F900FBEFD
:1057D0000F901F9018951F920F920FB60F921124E1
:1057E0002F933F934F935F936F937F938F939F93E9
:1057F000AF93BF93CF93DF93EF93FF93C091E900F3
:10580000CF708091EC00D82FD17080FDD0E810923D
:10581000E9008091F000877F8093F00078940E94E7
:105820002F2C1092E9008091F00088608093F000A6
:10583000CD2BCF70C093E900FF91EF91DF91CF9115
:10584000BF91AF919F918F917F916F915F914F9198
:105850003F912F910F900FBE0F901F9018951F939F
:10586000CF93DF93CDB7DEB7AA970FB6F894DEBF1C
:105870000FBECDBFE2E3F4E08091F100819324E01C
:10588000EA33F207C9F70E943F278091E80083FFBF
:105890002EC18091320490913304492F50E04A3058
:1058A000510508F024C1FA01EF57FF4F0C94D32D96
:1058B000803821F0823809F01AC108C080912E0486
:1058C00090912F04992389F082600FC08091360453
:1058D0008F70873008F00BC18093E9008091EB0056
:1058E00085FB882780F91092E9009091E800977F66
:1058F0009093E8008093F1001092F100D1C0282F1E
:105900002D7F09F0F4C0882319F0823061F0EFC0D8
:1059100080913404813009F0EAC0933009F080E0CE
:1059200080932F042EC08091340481112AC080916D
:1059300036048F702FEF280F263008F0D8C08093E0
:10594000E9002091EB0020FF1CC0933021F48091EE
:10595000EB00806214C09091EB0090619093EB009B
:1059600021E030E0A90102C0440F551F8A95E2F7FB
:105970004093EA001092EA008091EB0088608093E7
:10598000EB001092E9008091E800877F8093E800A7
:105990000E944C2AACC08111AAC0109134041F7718
:1059A0008091E3008078812B8093E3008091E80070
:1059B000877F8093E8000E944C2A8091E80080FF56
:1059C000FCCF8091E30080688093E300111102C056
:1059D00082E001C083E08093310489C08058823026
:1059E00008F085C080913404909135048C3D53E0DB
:1059F000950779F583E08A838AE289834FB7F89423
:105A0000DE01139620E03EE051E2E32FF0E05093F8
:105A10005700E49120FF03C0E295EF703F5FEF7005
:105A20008E2F90E0EA3010F0C79601C0C0968D939B
:105A30009D932F5F243149F74FBF8091E800877F06
:105A40008093E8006AE270E0CE0101960E94582936
:105A500016C06091360470913704AE014F5F5F4FFE
:105A60000E944B28BC01892B09F441C09091E800A9
:105A7000977F9093E80089819A810E94B62980914E
:105A8000E8008B778093E80032C0803881F5809100
:105A9000E800877F8093E80080912D048093F100D7
:105AA0008091E8008E7772CF811121C080913404FB
:105AB0009091350499270297D4F48091E800877F6C
:105AC0008093E8008091340480932D040E944C2A36
:105AD00080912D04811106C08091E30087FD02C0F2
